{
  "_format": "hh-sol-artifact-1",
  "contractName": "SupplyChain",
  "sourceName": "contracts/Supplychain.sol",
  "abi": [
    {
      "inputs": [],
      "stateMutability": "nonpayable",
      "type": "constructor"
    },
    {
      "anonymous": false,
      "inputs": [
        {
          "indexed": true,
          "internalType": "uint256",
          "name": "batchId",
          "type": "uint256"
        },
        {
          "indexed": false,
          "internalType": "string",
          "name": "name",
          "type": "string"
        }
      ],
      "name": "BatchCreated",
      "type": "event"
    },
    {
      "anonymous": false,
      "inputs": [
        {
          "indexed": true,
          "internalType": "uint256",
          "name": "productId",
          "type": "uint256"
        },
        {
          "indexed": false,
          "internalType": "string",
          "name": "name",
          "type": "string"
        },
        {
          "indexed": false,
          "internalType": "uint256",
          "name": "batchNo",
          "type": "uint256"
        }
      ],
      "name": "ProductAdded",
      "type": "event"
    },
    {
      "anonymous": false,
      "inputs": [
        {
          "indexed": true,
          "internalType": "uint256",
          "name": "productId",
          "type": "uint256"
        },
        {
          "indexed": false,
          "internalType": "enum Stage",
          "name": "newStage",
          "type": "uint8"
        },
        {
          "indexed": false,
          "internalType": "string",
          "name": "remarks",
          "type": "string"
        }
      ],
      "name": "ProductStageUpdated",
      "type": "event"
    },
    {
      "anonymous": false,
      "inputs": [
        {
          "indexed": true,
          "internalType": "address",
          "name": "wallet",
          "type": "address"
        },
        {
          "indexed": false,
          "internalType": "string",
          "name": "name",
          "type": "string"
        },
        {
          "indexed": false,
          "internalType": "enum Role",
          "name": "role",
          "type": "uint8"
        },
        {
          "indexed": false,
          "internalType": "enum UserStatus",
          "name": "status",
          "type": "uint8"
        }
      ],
      "name": "UserAdded",
      "type": "event"
    },
    {
      "anonymous": false,
      "inputs": [
        {
          "indexed": true,
          "internalType": "address",
          "name": "wallet",
          "type": "address"
        },
        {
          "indexed": false,
          "internalType": "enum UserStatus",
          "name": "oldStatus",
          "type": "uint8"
        },
        {
          "indexed": false,
          "internalType": "enum UserStatus",
          "name": "newStatus",
          "type": "uint8"
        }
      ],
      "name": "UserStatusUpdated",
      "type": "event"
    },
    {
      "inputs": [
        {
          "internalType": "string",
          "name": "_name",
          "type": "string"
        },
        {
          "internalType": "string",
          "name": "_productType",
          "type": "string"
        },
        {
          "internalType": "string",
          "name": "_description",
          "type": "string"
        },
        {
          "internalType": "uint256",
          "name": "_batchNo",
          "type": "uint256"
        },
        {
          "internalType": "uint256",
          "name": "_manufacturedDate",
          "type": "uint256"
        },
        {
          "internalType": "uint256",
          "name": "_expiryDate",
          "type": "uint256"
        },
        {
          "internalType": "uint256",
          "name": "_price",
          "type": "uint256"
        }
      ],
      "name": "addProduct",
      "outputs": [],
      "stateMutability": "nonpayable",
      "type": "function"
    },
    {
      "inputs": [
        {
          "internalType": "address",
          "name": "_wallet",
          "type": "address"
        },
        {
          "internalType": "string",
          "name": "_name",
          "type": "string"
        },
        {
          "internalType": "string",
          "name": "_place",
          "type": "string"
        },
        {
          "internalType": "enum Role",
          "name": "_role",
          "type": "uint8"
        }
      ],
      "name": "addUser",
      "outputs": [],
      "stateMutability": "nonpayable",
      "type": "function"
    },
    {
      "inputs": [
        {
          "internalType": "uint256",
          "name": "",
          "type": "uint256"
        }
      ],
      "name": "batches",
      "outputs": [
        {
          "internalType": "string",
          "name": "name",
          "type": "string"
        },
        {
          "internalType": "string",
          "name": "description",
          "type": "string"
        }
      ],
      "stateMutability": "view",
      "type": "function"
    },
    {
      "inputs": [
        {
          "internalType": "string",
          "name": "_name",
          "type": "string"
        },
        {
          "internalType": "string",
          "name": "_description",
          "type": "string"
        }
      ],
      "name": "createBatch",
      "outputs": [],
      "stateMutability": "nonpayable",
      "type": "function"
    },
    {
      "inputs": [],
      "name": "getAllUserList",
      "outputs": [
        {
          "components": [
            {
              "internalType": "address",
              "name": "wallet",
              "type": "address"
            },
            {
              "internalType": "string",
              "name": "name",
              "type": "string"
            },
            {
              "internalType": "string",
              "name": "place",
              "type": "string"
            },
            {
              "internalType": "enum Role",
              "name": "role",
              "type": "uint8"
            },
            {
              "internalType": "enum UserStatus",
              "name": "status",
              "type": "uint8"
            }
          ],
          "internalType": "struct UserResponseStruct[]",
          "name": "",
          "type": "tuple[]"
        }
      ],
      "stateMutability": "view",
      "type": "function"
    },
    {
      "inputs": [
        {
          "internalType": "uint256",
          "name": "_productId",
          "type": "uint256"
        }
      ],
      "name": "getProductDetails",
      "outputs": [
        {
          "components": [
            {
              "internalType": "uint256",
              "name": "productId",
              "type": "uint256"
            },
            {
              "internalType": "address",
              "name": "ownerWallet",
              "type": "address"
            },
            {
              "internalType": "string",
              "name": "name",
              "type": "string"
            },
            {
              "internalType": "uint256",
              "name": "batchNo",
              "type": "uint256"
            },
            {
              "internalType": "enum Stage",
              "name": "stage",
              "type": "uint8"
            },
            {
              "internalType": "string",
              "name": "productType",
              "type": "string"
            },
            {
              "internalType": "string",
              "name": "description",
              "type": "string"
            },
            {
              "internalType": "uint256",
              "name": "manufacturedDate",
              "type": "uint256"
            },
            {
              "internalType": "uint256",
              "name": "expiryDate",
              "type": "uint256"
            },
            {
              "internalType": "uint256",
              "name": "price",
              "type": "uint256"
            }
          ],
          "internalType": "struct ProductResponseStruct",
          "name": "productResponse",
          "type": "tuple"
        },
        {
          "components": [
            {
              "internalType": "string",
              "name": "name",
              "type": "string"
            },
            {
              "internalType": "string",
              "name": "description",
              "type": "string"
            }
          ],
          "internalType": "struct Batch",
          "name": "batchDetails",
          "type": "tuple"
        },
        {
          "components": [
            {
              "components": [
                {
                  "internalType": "string",
                  "name": "name",
                  "type": "string"
                },
                {
                  "internalType": "string",
                  "name": "place",
                  "type": "string"
                },
                {
                  "internalType": "enum Role",
                  "name": "role",
                  "type": "uint8"
                },
                {
                  "internalType": "enum UserStatus",
                  "name": "status",
                  "type": "uint8"
                }
              ],
              "internalType": "struct User",
              "name": "user",
              "type": "tuple"
            },
            {
              "internalType": "enum Stage",
              "name": "stage",
              "type": "uint8"
            },
            {
              "internalType": "uint256",
              "name": "stageCount",
              "type": "uint256"
            },
            {
              "internalType": "uint256",
              "name": "entryTime",
              "type": "uint256"
            },
            {
              "internalType": "uint256",
              "name": "exitTime",
              "type": "uint256"
            },
            {
              "internalType": "string",
              "name": "remark",
              "type": "string"
            }
          ],
          "internalType": "struct StageDetails[]",
          "name": "stageDetails",
          "type": "tuple[]"
        }
      ],
      "stateMutability": "view",
      "type": "function"
    },
    {
      "inputs": [],
      "name": "getProductsByUser",
      "outputs": [
        {
          "components": [
            {
              "internalType": "uint256",
              "name": "productId",
              "type": "uint256"
            },
            {
              "internalType": "address",
              "name": "ownerWallet",
              "type": "address"
            },
            {
              "internalType": "string",
              "name": "name",
              "type": "string"
            },
            {
              "internalType": "uint256",
              "name": "batchNo",
              "type": "uint256"
            },
            {
              "internalType": "enum Stage",
              "name": "stage",
              "type": "uint8"
            },
            {
              "internalType": "string",
              "name": "productType",
              "type": "string"
            },
            {
              "internalType": "string",
              "name": "description",
              "type": "string"
            },
            {
              "internalType": "uint256",
              "name": "manufacturedDate",
              "type": "uint256"
            },
            {
              "internalType": "uint256",
              "name": "expiryDate",
              "type": "uint256"
            },
            {
              "internalType": "uint256",
              "name": "price",
              "type": "uint256"
            }
          ],
          "internalType": "struct ProductResponseStruct[]",
          "name": "",
          "type": "tuple[]"
        }
      ],
      "stateMutability": "view",
      "type": "function"
    },
    {
      "inputs": [],
      "name": "owner",
      "outputs": [
        {
          "internalType": "address",
          "name": "",
          "type": "address"
        }
      ],
      "stateMutability": "view",
      "type": "function"
    },
    {
      "inputs": [
        {
          "internalType": "uint256",
          "name": "_productId",
          "type": "uint256"
        },
        {
          "internalType": "enum Stage",
          "name": "_newStage",
          "type": "uint8"
        },
        {
          "internalType": "string",
          "name": "_remark",
          "type": "string"
        }
      ],
      "name": "productCheckIn",
      "outputs": [],
      "stateMutability": "nonpayable",
      "type": "function"
    },
    {
      "inputs": [
        {
          "internalType": "uint256",
          "name": "_productId",
          "type": "uint256"
        },
        {
          "internalType": "enum Stage",
          "name": "_newStage",
          "type": "uint8"
        },
        {
          "internalType": "string",
          "name": "_remark",
          "type": "string"
        }
      ],
      "name": "productStageUpdate",
      "outputs": [],
      "stateMutability": "nonpayable",
      "type": "function"
    },
    {
      "inputs": [
        {
          "internalType": "string",
          "name": "_name",
          "type": "string"
        },
        {
          "internalType": "string",
          "name": "_place",
          "type": "string"
        },
        {
          "internalType": "enum Role",
          "name": "_role",
          "type": "uint8"
        }
      ],
      "name": "registerUser",
      "outputs": [],
      "stateMutability": "nonpayable",
      "type": "function"
    },
    {
      "inputs": [
        {
          "internalType": "address",
          "name": "_wallet",
          "type": "address"
        },
        {
          "internalType": "enum UserStatus",
          "name": "newStatus",
          "type": "uint8"
        }
      ],
      "name": "updateUserStatus",
      "outputs": [],
      "stateMutability": "nonpayable",
      "type": "function"
    },
    {
      "inputs": [
        {
          "internalType": "address",
          "name": "",
          "type": "address"
        }
      ],
      "name": "userExist",
      "outputs": [
        {
          "internalType": "bool",
          "name": "",
          "type": "bool"
        }
      ],
      "stateMutability": "view",
      "type": "function"
    },
    {
      "inputs": [
        {
          "internalType": "address",
          "name": "",
          "type": "address"
        }
      ],
      "name": "users",
      "outputs": [
        {
          "internalType": "string",
          "name": "name",
          "type": "string"
        },
        {
          "internalType": "string",
          "name": "place",
          "type": "string"
        },
        {
          "internalType": "enum Role",
          "name": "role",
          "type": "uint8"
        },
        {
          "internalType": "enum UserStatus",
          "name": "status",
          "type": "uint8"
        }
      ],
      "stateMutability": "view",
      "type": "function"
    }
  ],
  "bytecode": "0x6080604052348015600f57600080fd5b50336000806101000a81548173ffffffffffffffffffffffffffffffffffffffff021916908373ffffffffffffffffffffffffffffffffffffffff160217905550615cf48061005f6000396000f3fe608060405234801561001057600080fd5b50600436106100ea5760003560e01c80638da5cb5b1161008c578063a87430ba11610066578063a87430ba14610223578063aa6baabd14610256578063ab7e7cf614610272578063b32c4d8d146102a2576100ea565b80638da5cb5b146101cd57806392b8f021146101eb578063931f075114610207576100ea565b80633367d68b116100c85780633367d68b14610145578063397cc283146101615780635849606d1461017d5780636813b53b1461019b576100ea565b80632e17a931146100ef57806330359d261461010b578063309d97fb14610127575b600080fd5b61010960048036038101906101049190613f63565b6102d3565b005b61012560048036038101906101209190614049565b610680565b005b61012f610c96565b60405161013c91906143a8565b60405180910390f35b61015f600480360381019061015a91906143ca565b611199565b005b61017b60048036038101906101769190614049565b611974565b005b610185611fa5565b604051610192919061468f565b60405180910390f35b6101b560048036038101906101b091906146b1565b6122f2565b6040516101c4939291906149c6565b60405180910390f35b6101d5612b25565b6040516101e29190614a21565b60405180910390f35b61020560048036038101906102009190614a3c565b612b49565b005b610221600480360381019061021c9190614b05565b612e35565b005b61023d60048036038101906102389190614b45565b6132f6565b60405161024d9493929190614bda565b60405180910390f35b610270600480360381019061026b9190614c2d565b613450565b005b61028c60048036038101906102879190614b45565b6138fb565b6040516102999190614ce7565b60405180910390f35b6102bc60048036038101906102b791906146b1565b61391b565b6040516102ca929190614d02565b60405180910390f35b60028351101580156102e757506002825110155b610326576040517f08c379a000000000000000000000000000000000000000000000000000000000815260040161031d90614d85565b60405180910390fd5b600c60003373ffffffffffffffffffffffffffffffffffffffff1673ffffffffffffffffffffffffffffffffffffffff16815260200190815260200160002060009054906101000a900460ff16156103b3576040517f08c379a00000000000000000000000000000000000000000000000000000000081526004016103aa90614df1565b60405180910390fd5b60008054906101000a900473ffffffffffffffffffffffffffffffffffffffff1673ffffffffffffffffffffffffffffffffffffffff163373ffffffffffffffffffffffffffffffffffffffff1603610441576040517f08c379a000000000000000000000000000000000000000000000000000000000815260040161043890614e5d565b60405180910390fd5b604051806080016040528084815260200183815260200182600481111561046b5761046a6141b3565b5b815260200160006004811115610484576104836141b3565b5b815250600460003373ffffffffffffffffffffffffffffffffffffffff1673ffffffffffffffffffffffffffffffffffffffff16815260200190815260200160002060008201518160000190816104db9190615089565b5060208201518160010190816104f19190615089565b5060408201518160020160006101000a81548160ff0219169083600481111561051d5761051c6141b3565b5b021790555060608201518160020160016101000a81548160ff0219169083600481111561054d5761054c6141b3565b5b02179055509050506001600c60003373ffffffffffffffffffffffffffffffffffffffff1673ffffffffffffffffffffffffffffffffffffffff16815260200190815260200160002060006101000a81548160ff021916908315150217905550600d339080600181540180825580915050600190039060005260206000200160009091909190916101000a81548173ffffffffffffffffffffffffffffffffffffffff021916908373ffffffffffffffffffffffffffffffffffffffff160217905550600360008154809291906106239061518a565b91905055503373ffffffffffffffffffffffffffffffffffffffff167fc2d513e5848a176ed9c47c262b65bc07cbf0ea47de289a3cef6197427ca56f4284836000604051610673939291906151d2565b60405180910390a2505050565b600c60003373ffffffffffffffffffffffffffffffffffffffff1673ffffffffffffffffffffffffffffffffffffffff16815260200190815260200160002060009054906101000a900460ff1661070c576040517f08c379a00000000000000000000000000000000000000000000000000000000081526004016107039061525c565b60405180910390fd5b600260048111156107205761071f6141b3565b5b600460003373ffffffffffffffffffffffffffffffffffffffff1673ffffffffffffffffffffffffffffffffffffffff16815260200190815260200160002060020160019054906101000a900460ff166004811115610782576107816141b3565b5b146107c2576040517f08c379a00000000000000000000000000000000000000000000000000000000081526004016107b9906152c8565b60405180910390fd5b6006600084815260200190815260200160002060030160009054906101000a900460ff1660068111156107f8576107f76141b3565b5b82600681111561080b5761080a6141b3565b5b101561084c576040517f08c379a000000000000000000000000000000000000000000000000000000000815260040161084390615334565b60405180910390fd5b6108563383613a4f565b610895576040517f08c379a000000000000000000000000000000000000000000000000000000000815260040161088c906153a0565b60405180910390fd5b600b60003373ffffffffffffffffffffffffffffffffffffffff1673ffffffffffffffffffffffffffffffffffffffff168152602001908152602001600020600084815260200190815260200160002060009054906101000a900460ff1615610933576040517f08c379a000000000000000000000000000000000000000000000000000000000815260040161092a9061540c565b60405180910390fd5b816006600085815260200190815260200160002060030160006101000a81548160ff0219169083600681111561096c5761096b6141b3565b5b0217905550336006600085815260200190815260200160002060000160006101000a81548173ffffffffffffffffffffffffffffffffffffffff021916908373ffffffffffffffffffffffffffffffffffffffff1602179055506007600084815260200190815260200160002060008154809291906109ea9061518a565b9190505550600a60003373ffffffffffffffffffffffffffffffffffffffff1673ffffffffffffffffffffffffffffffffffffffff1681526020019081526020016000208390806001815401808255809150506001900390600052602060002001600090919091909150556001600b60003373ffffffffffffffffffffffffffffffffffffffff1673ffffffffffffffffffffffffffffffffffffffff168152602001908152602001600020600085815260200190815260200160002060006101000a81548160ff0219169083151502179055506040518060c001604052803373ffffffffffffffffffffffffffffffffffffffff1681526020014281526020016000815260200160076000868152602001908152602001600020548152602001836006811115610b1e57610b1d6141b3565b5b8152602001828152506008600085815260200190815260200160002060006007600087815260200190815260200160002054815260200190815260200160002060008201518160000160006101000a81548173ffffffffffffffffffffffffffffffffffffffff021916908373ffffffffffffffffffffffffffffffffffffffff16021790555060208201518160010155604082015181600201556060820151816003015560808201518160040160006101000a81548160ff02191690836006811115610bee57610bed6141b3565b5b021790555060a0820151816005019081610c089190615089565b509050504260086000858152602001908152602001600020600060016007600088815260200190815260200160002054610c42919061542c565b815260200190815260200160002060020181905550827f81d42ac9e3d46884f2be5e2b66b43e389b2a0f31342d07a3f71d2090017851698383604051610c8992919061546f565b60405180910390a2505050565b6060600c60003373ffffffffffffffffffffffffffffffffffffffff1673ffffffffffffffffffffffffffffffffffffffff16815260200190815260200160002060009054906101000a900460ff16610d24576040517f08c379a0000000000000000000000000000000000000000000000000000000008152600401610d1b9061525c565b60405180910390fd5b60026004811115610d3857610d376141b3565b5b600460003373ffffffffffffffffffffffffffffffffffffffff1673ffffffffffffffffffffffffffffffffffffffff16815260200190815260200160002060020160019054906101000a900460ff166004811115610d9a57610d996141b3565b5b14610dda576040517f08c379a0000000000000000000000000000000000000000000000000000000008152600401610dd1906152c8565b60405180910390fd5b6000600a60003373ffffffffffffffffffffffffffffffffffffffff1673ffffffffffffffffffffffffffffffffffffffff168152602001908152602001600020805480602002602001604051908101604052809291908181526020018280548015610e6557602002820191906000526020600020905b815481526020019060010190808311610e51575b5050505050905060008151905060008167ffffffffffffffff811115610e8e57610e8d613e13565b5b604051908082528060200260200182016040528015610ec757816020015b610eb4613c4c565b815260200190600190039081610eac5790505b50905060005b8281101561118f576000848281518110610eea57610ee961549f565b5b6020026020010151905060006006600083815260200190815260200160002090506040518061014001604052808381526020018260000160009054906101000a900473ffffffffffffffffffffffffffffffffffffffff1673ffffffffffffffffffffffffffffffffffffffff168152602001826001018054610f6c90614eac565b80601f0160208091040260200160405190810160405280929190818152602001828054610f9890614eac565b8015610fe55780601f10610fba57610100808354040283529160200191610fe5565b820191906000526020600020905b815481529060010190602001808311610fc857829003601f168201915b50505050508152602001826002015481526020018260030160009054906101000a900460ff16600681111561101d5761101c6141b3565b5b815260200182600401805461103190614eac565b80601f016020809104026020016040519081016040528092919081815260200182805461105d90614eac565b80156110aa5780601f1061107f576101008083540402835291602001916110aa565b820191906000526020600020905b81548152906001019060200180831161108d57829003601f168201915b505050505081526020018260050180546110c390614eac565b80601f01602080910402602001604051908101604052809291908181526020018280546110ef90614eac565b801561113c5780601f106111115761010080835404028352916020019161113c565b820191906000526020600020905b81548152906001019060200180831161111f57829003601f168201915b50505050508152602001826006015481526020018260070154815260200182600801548152508484815181106111755761117461549f565b5b602002602001018190525050508080600101915050610ecd565b5080935050505090565b600c60003373ffffffffffffffffffffffffffffffffffffffff1673ffffffffffffffffffffffffffffffffffffffff16815260200190815260200160002060009054906101000a900460ff16611225576040517f08c379a000000000000000000000000000000000000000000000000000000000815260040161121c9061525c565b60405180910390fd5b60026004811115611239576112386141b3565b5b600460003373ffffffffffffffffffffffffffffffffffffffff1673ffffffffffffffffffffffffffffffffffffffff16815260200190815260200160002060020160019054906101000a900460ff16600481111561129b5761129a6141b3565b5b146112db576040517f08c379a00000000000000000000000000000000000000000000000000000000081526004016112d2906152c8565b60405180910390fd5b600060048111156112ef576112ee6141b3565b5b600460003373ffffffffffffffffffffffffffffffffffffffff1673ffffffffffffffffffffffffffffffffffffffff16815260200190815260200160002060020160009054906101000a900460ff166004811115611351576113506141b3565b5b14611391576040517f08c379a0000000000000000000000000000000000000000000000000000000008152600401611388906153a0565b60405180910390fd5b6000841180156113a357506002548411155b6113e2576040517f08c379a00000000000000000000000000000000000000000000000000000000081526004016113d99061551a565b60405180910390fd5b600287511015611427576040517f08c379a000000000000000000000000000000000000000000000000000000000815260040161141e90615586565b60405180910390fd5b6000811161146a576040517f08c379a0000000000000000000000000000000000000000000000000000000008152600401611461906155f2565b60405180910390fd5b4283106114ac576040517f08c379a00000000000000000000000000000000000000000000000000000000081526004016114a39061565e565b60405180910390fd5b8282116114ee576040517f08c379a00000000000000000000000000000000000000000000000000000000081526004016114e5906156f0565b60405180910390fd5b600160008154809291906115019061518a565b91905055506040518061012001604052803373ffffffffffffffffffffffffffffffffffffffff1681526020018881526020018581526020016000600681111561154e5761154d6141b3565b5b81526020018781526020018681526020018481526020018381526020018281525060066000600154815260200190815260200160002060008201518160000160006101000a81548173ffffffffffffffffffffffffffffffffffffffff021916908373ffffffffffffffffffffffffffffffffffffffff16021790555060208201518160010190816115e09190615089565b506040820151816002015560608201518160030160006101000a81548160ff02191690836006811115611616576116156141b3565b5b021790555060808201518160040190816116309190615089565b5060a08201518160050190816116469190615089565b5060c0820151816006015560e082015181600701556101008201518160080155905050600960008581526020019081526020016000206001549080600181540180825580915050600190039060005260206000200160009091909190915055600160076000600154815260200190815260200160002060008282546116cb9190615710565b92505081905550600a60003373ffffffffffffffffffffffffffffffffffffffff1673ffffffffffffffffffffffffffffffffffffffff16815260200190815260200160002060015490806001815401808255809150506001900390600052602060002001600090919091909150556001600b60003373ffffffffffffffffffffffffffffffffffffffff1673ffffffffffffffffffffffffffffffffffffffff1681526020019081526020016000206000600154815260200190815260200160002060006101000a81548160ff0219169083151502179055506040518060c001604052803373ffffffffffffffffffffffffffffffffffffffff1681526020014281526020016000815260200160076000600154815260200190815260200160002054815260200160006006811115611808576118076141b3565b5b81526020016040518060400160405280600d81526020017f4d616e7566616374757265642e00000000000000000000000000000000000000815250815250600860006001548152602001908152602001600020600060076000600154815260200190815260200160002054815260200190815260200160002060008201518160000160006101000a81548173ffffffffffffffffffffffffffffffffffffffff021916908373ffffffffffffffffffffffffffffffffffffffff16021790555060208201518160010155604082015181600201556060820151816003015560808201518160040160006101000a81548160ff02191690836006811115611911576119106141b3565b5b021790555060a082015181600501908161192b9190615089565b509050506001547fcca07c742c5274e8b72111ba69566aa4442450bfc50bd897ea38d0170d1accfc8886604051611963929190615753565b60405180910390a250505050505050565b8260008111801561198757506001548111155b6119c6576040517f08c379a00000000000000000000000000000000000000000000000000000000081526004016119bd906157cf565b60405180910390fd5b600c60003373ffffffffffffffffffffffffffffffffffffffff1673ffffffffffffffffffffffffffffffffffffffff16815260200190815260200160002060009054906101000a900460ff16611a52576040517f08c379a0000000000000000000000000000000000000000000000000000000008152600401611a499061525c565b60405180910390fd5b60026004811115611a6657611a656141b3565b5b600460003373ffffffffffffffffffffffffffffffffffffffff1673ffffffffffffffffffffffffffffffffffffffff16815260200190815260200160002060020160019054906101000a900460ff166004811115611ac857611ac76141b3565b5b14611b08576040517f08c379a0000000000000000000000000000000000000000000000000000000008152600401611aff906152c8565b60405180910390fd5b3373ffffffffffffffffffffffffffffffffffffffff166006600086815260200190815260200160002060000160009054906101000a900473ffffffffffffffffffffffffffffffffffffffff1673ffffffffffffffffffffffffffffffffffffffff1614611bac576040517f08c379a0000000000000000000000000000000000000000000000000000000008152600401611ba3906153a0565b60405180910390fd5b6006600085815260200190815260200160002060030160009054906101000a900460ff166006811115611be257611be16141b3565b5b836006811115611bf557611bf46141b3565b5b03611c35576040517f08c379a0000000000000000000000000000000000000000000000000000000008152600401611c2c9061583b565b60405180910390fd5b600680811115611c4857611c476141b3565b5b836006811115611c5b57611c5a6141b3565b5b1480611c8b575060056006811115611c7657611c756141b3565b5b836006811115611c8957611c886141b3565b5b145b611cca576040517f08c379a0000000000000000000000000000000000000000000000000000000008152600401611cc1906158a7565b60405180910390fd5b600582511015611d0f576040517f08c379a0000000000000000000000000000000000000000000000000000000008152600401611d0690615913565b60405180910390fd5b826006600086815260200190815260200160002060030160006101000a81548160ff02191690836006811115611d4857611d476141b3565b5b021790555060006006600086815260200190815260200160002060000160006101000a81548173ffffffffffffffffffffffffffffffffffffffff021916908373ffffffffffffffffffffffffffffffffffffffff160217905550600760008581526020019081526020016000206000815480929190611dc79061518a565b91905055506040518060c001604052803373ffffffffffffffffffffffffffffffffffffffff1681526020014281526020016000815260200160076000878152602001908152602001600020548152602001846006811115611e2c57611e2b6141b3565b5b8152602001838152506008600086815260200190815260200160002060006007600088815260200190815260200160002054815260200190815260200160002060008201518160000160006101000a81548173ffffffffffffffffffffffffffffffffffffffff021916908373ffffffffffffffffffffffffffffffffffffffff16021790555060208201518160010155604082015181600201556060820151816003015560808201518160040160006101000a81548160ff02191690836006811115611efc57611efb6141b3565b5b021790555060a0820151816005019081611f169190615089565b509050504260086000868152602001908152602001600020600060016007600089815260200190815260200160002054611f50919061542c565b815260200190815260200160002060020181905550837f81d42ac9e3d46884f2be5e2b66b43e389b2a0f31342d07a3f71d2090017851698484604051611f9792919061546f565b60405180910390a250505050565b606060008054906101000a900473ffffffffffffffffffffffffffffffffffffffff1673ffffffffffffffffffffffffffffffffffffffff163373ffffffffffffffffffffffffffffffffffffffff1614612035576040517f08c379a000000000000000000000000000000000000000000000000000000000815260040161202c906159a5565b60405180910390fd5b600060035467ffffffffffffffff81111561205357612052613e13565b5b60405190808252806020026020018201604052801561208c57816020015b612079613cc7565b8152602001906001900390816120715790505b50905060005b6003548110156122ea576000600d82815481106120b2576120b161549f565b5b9060005260206000200160009054906101000a900473ffffffffffffffffffffffffffffffffffffffff1690506000600460008373ffffffffffffffffffffffffffffffffffffffff1673ffffffffffffffffffffffffffffffffffffffff16815260200190815260200160002090506040518060a001604052808373ffffffffffffffffffffffffffffffffffffffff16815260200182600001805461215890614eac565b80601f016020809104026020016040519081016040528092919081815260200182805461218490614eac565b80156121d15780601f106121a6576101008083540402835291602001916121d1565b820191906000526020600020905b8154815290600101906020018083116121b457829003601f168201915b505050505081526020018260010180546121ea90614eac565b80601f016020809104026020016040519081016040528092919081815260200182805461221690614eac565b80156122635780601f1061223857610100808354040283529160200191612263565b820191906000526020600020905b81548152906001019060200180831161224657829003601f168201915b505050505081526020018260020160009054906101000a900460ff166004811115612291576122906141b3565b5b81526020018260020160019054906101000a900460ff1660048111156122ba576122b96141b3565b5b8152508484815181106122d0576122cf61549f565b5b602002602001018190525050508080600101915050612092565b508091505090565b6122fa613c4c565b612302613d30565b6060600060066000868152602001908152602001600020905060006007600087815260200190815260200160002054905060008167ffffffffffffffff81111561234f5761234e613e13565b5b60405190808252806020026020018201604052801561238857816020015b612375613d4a565b81526020019060019003908161236d5790505b5090506000600190505b828111612770576040518060c0016040528060046000600860008d8152602001908152602001600020600086815260200190815260200160002060000160009054906101000a900473ffffffffffffffffffffffffffffffffffffffff1673ffffffffffffffffffffffffffffffffffffffff1673ffffffffffffffffffffffffffffffffffffffff16815260200190815260200160002060405180608001604052908160008201805461244590614eac565b80601f016020809104026020016040519081016040528092919081815260200182805461247190614eac565b80156124be5780601f10612493576101008083540402835291602001916124be565b820191906000526020600020905b8154815290600101906020018083116124a157829003601f168201915b505050505081526020016001820180546124d790614eac565b80601f016020809104026020016040519081016040528092919081815260200182805461250390614eac565b80156125505780601f1061252557610100808354040283529160200191612550565b820191906000526020600020905b81548152906001019060200180831161253357829003601f168201915b505050505081526020016002820160009054906101000a900460ff16600481111561257e5761257d6141b3565b5b60048111156125905761258f6141b3565b5b81526020016002820160019054906101000a900460ff1660048111156125b9576125b86141b3565b5b60048111156125cb576125ca6141b3565b5b815250508152602001600860008b8152602001908152602001600020600084815260200190815260200160002060040160009054906101000a900460ff16600681111561261b5761261a6141b3565b5b8152602001828152602001600860008b81526020019081526020016000206000848152602001908152602001600020600101548152602001600860008b81526020019081526020016000206000848152602001908152602001600020600201548152602001600860008b8152602001908152602001600020600084815260200190815260200160002060050180546126b290614eac565b80601f01602080910402602001604051908101604052809291908181526020018280546126de90614eac565b801561272b5780601f106127005761010080835404028352916020019161272b565b820191906000526020600020905b81548152906001019060200180831161270e57829003601f168201915b505050505081525082600183612741919061542c565b815181106127525761275161549f565b5b602002602001018190525080806127689061518a565b915050612392565b506040518061014001604052808881526020018460000160009054906101000a900473ffffffffffffffffffffffffffffffffffffffff1673ffffffffffffffffffffffffffffffffffffffff1681526020018460010180546127d290614eac565b80601f01602080910402602001604051908101604052809291908181526020018280546127fe90614eac565b801561284b5780601f106128205761010080835404028352916020019161284b565b820191906000526020600020905b81548152906001019060200180831161282e57829003601f168201915b50505050508152602001846002015481526020018460030160009054906101000a900460ff166006811115612883576128826141b3565b5b815260200184600401805461289790614eac565b80601f01602080910402602001604051908101604052809291908181526020018280546128c390614eac565b80156129105780601f106128e557610100808354040283529160200191612910565b820191906000526020600020905b8154815290600101906020018083116128f357829003601f168201915b5050505050815260200184600501805461292990614eac565b80601f016020809104026020016040519081016040528092919081815260200182805461295590614eac565b80156129a25780601f10612977576101008083540402835291602001916129a2565b820191906000526020600020905b81548152906001019060200180831161298557829003601f168201915b5050505050815260200184600601548152602001846007015481526020018460080154815250955085600560008560020154815260200190815260200160002082816040518060400160405290816000820180546129ff90614eac565b80601f0160208091040260200160405190810160405280929190818152602001828054612a2b90614eac565b8015612a785780601f10612a4d57610100808354040283529160200191612a78565b820191906000526020600020905b815481529060010190602001808311612a5b57829003601f168201915b50505050508152602001600182018054612a9190614eac565b80601f0160208091040260200160405190810160405280929190818152602001828054612abd90614eac565b8015612b0a5780601f10612adf57610100808354040283529160200191612b0a565b820191906000526020600020905b815481529060010190602001808311612aed57829003601f168201915b50505050508152505091509550955095505050509193909250565b60008054906101000a900473ffffffffffffffffffffffffffffffffffffffff1681565b600c60003373ffffffffffffffffffffffffffffffffffffffff1673ffffffffffffffffffffffffffffffffffffffff16815260200190815260200160002060009054906101000a900460ff16612bd5576040517f08c379a0000000000000000000000000000000000000000000000000000000008152600401612bcc9061525c565b60405180910390fd5b60026004811115612be957612be86141b3565b5b600460003373ffffffffffffffffffffffffffffffffffffffff1673ffffffffffffffffffffffffffffffffffffffff16815260200190815260200160002060020160019054906101000a900460ff166004811115612c4b57612c4a6141b3565b5b14612c8b576040517f08c379a0000000000000000000000000000000000000000000000000000000008152600401612c82906152c8565b60405180910390fd5b60006004811115612c9f57612c9e6141b3565b5b600460003373ffffffffffffffffffffffffffffffffffffffff1673ffffffffffffffffffffffffffffffffffffffff16815260200190815260200160002060020160009054906101000a900460ff166004811115612d0157612d006141b3565b5b14612d41576040517f08c379a0000000000000000000000000000000000000000000000000000000008152600401612d38906153a0565b60405180910390fd5b600282511015612d86576040517f08c379a0000000000000000000000000000000000000000000000000000000008152600401612d7d90615a11565b60405180910390fd5b60026000815480929190612d999061518a565b91905055506040518060400160405280838152602001828152506005600060025481526020019081526020016000206000820151816000019081612ddd9190615089565b506020820151816001019081612df39190615089565b509050506002547f65d0897ef90523e0e840598aac93f29c40c60164ddb22532dfd3a7951575737683604051612e299190615a31565b60405180910390a25050565b60008054906101000a900473ffffffffffffffffffffffffffffffffffffffff1673ffffffffffffffffffffffffffffffffffffffff163373ffffffffffffffffffffffffffffffffffffffff1614612ec3576040517f08c379a0000000000000000000000000000000000000000000000000000000008152600401612eba906159a5565b60405180910390fd5b600073ffffffffffffffffffffffffffffffffffffffff168273ffffffffffffffffffffffffffffffffffffffff1603612f32576040517f08c379a0000000000000000000000000000000000000000000000000000000008152600401612f2990615a9f565b60405180910390fd5b6000600460008473ffffffffffffffffffffffffffffffffffffffff1673ffffffffffffffffffffffffffffffffffffffff16815260200190815260200160002060020160019054906101000a900460ff169050816004811115612f9957612f986141b3565b5b816004811115612fac57612fab6141b3565b5b03612fec576040517f08c379a0000000000000000000000000000000000000000000000000000000008152600401612fe390615b0b565b60405180910390fd5b600480811115612fff57612ffe6141b3565b5b826004811115613012576130116141b3565b5b03613083576002600481111561302b5761302a6141b3565b5b81600481111561303e5761303d6141b3565b5b1461307e576040517f08c379a000000000000000000000000000000000000000000000000000000000815260040161307590615b77565b60405180910390fd5b613237565b60016004811115613097576130966141b3565b5b8260048111156130aa576130a96141b3565b5b0361317357600060048111156130c3576130c26141b3565b5b8160048111156130d6576130d56141b3565b5b14613116576040517f08c379a000000000000000000000000000000000000000000000000000000000815260040161310d90615be3565b60405180910390fd5b6000600c60008573ffffffffffffffffffffffffffffffffffffffff1673ffffffffffffffffffffffffffffffffffffffff16815260200190815260200160002060006101000a81548160ff021916908315150217905550613236565b60026004811115613187576131866141b3565b5b82600481111561319a576131996141b3565b5b0361323557600060048111156131b3576131b26141b3565b5b8160048111156131c6576131c56141b3565b5b14806131f557506004808111156131e0576131df6141b3565b5b8160048111156131f3576131f26141b3565b5b145b613234576040517f08c379a000000000000000000000000000000000000000000000000000000000815260040161322b90615c75565b60405180910390fd5b5b5b5b81600460008573ffffffffffffffffffffffffffffffffffffffff1673ffffffffffffffffffffffffffffffffffffffff16815260200190815260200160002060020160016101000a81548160ff0219169083600481111561329c5761329b6141b3565b5b02179055508273ffffffffffffffffffffffffffffffffffffffff167f975ac4961d0adbdc3da20d9f9993760d66928d93dfa2dee4bb79815b266530e282846040516132e9929190615c95565b60405180910390a2505050565b600460205280600052604060002060009150905080600001805461331990614eac565b80601f016020809104026020016040519081016040528092919081815260200182805461334590614eac565b80156133925780601f1061336757610100808354040283529160200191613392565b820191906000526020600020905b81548152906001019060200180831161337557829003601f168201915b5050505050908060010180546133a790614eac565b80601f01602080910402602001604051908101604052809291908181526020018280546133d390614eac565b80156134205780601f106133f557610100808354040283529160200191613420565b820191906000526020600020905b81548152906001019060200180831161340357829003601f168201915b5050505050908060020160009054906101000a900460ff16908060020160019054906101000a900460ff16905084565b60008054906101000a900473ffffffffffffffffffffffffffffffffffffffff1673ffffffffffffffffffffffffffffffffffffffff163373ffffffffffffffffffffffffffffffffffffffff16146134de576040517f08c379a00000000000000000000000000000000000000000000000000000000081526004016134d5906159a5565b60405180910390fd5b600073ffffffffffffffffffffffffffffffffffffffff168473ffffffffffffffffffffffffffffffffffffffff160361354d576040517f08c379a000000000000000000000000000000000000000000000000000000000815260040161354490615a9f565b60405180910390fd5b600283511015801561356157506002825110155b6135a0576040517f08c379a000000000000000000000000000000000000000000000000000000000815260040161359790614d85565b60405180910390fd5b600c60008573ffffffffffffffffffffffffffffffffffffffff1673ffffffffffffffffffffffffffffffffffffffff16815260200190815260200160002060009054906101000a900460ff161561362d576040517f08c379a000000000000000000000000000000000000000000000000000000000815260040161362490614df1565b60405180910390fd5b60008054906101000a900473ffffffffffffffffffffffffffffffffffffffff1673ffffffffffffffffffffffffffffffffffffffff168473ffffffffffffffffffffffffffffffffffffffff16036136bb576040517f08c379a00000000000000000000000000000000000000000000000000000000081526004016136b290614e5d565b60405180910390fd5b60405180608001604052808481526020018381526020018260048111156136e5576136e46141b3565b5b8152602001600260048111156136fe576136fd6141b3565b5b815250600460008673ffffffffffffffffffffffffffffffffffffffff1673ffffffffffffffffffffffffffffffffffffffff16815260200190815260200160002060008201518160000190816137559190615089565b50602082015181600101908161376b9190615089565b5060408201518160020160006101000a81548160ff02191690836004811115613797576137966141b3565b5b021790555060608201518160020160016101000a81548160ff021916908360048111156137c7576137c66141b3565b5b02179055509050506001600c60008673ffffffffffffffffffffffffffffffffffffffff1673ffffffffffffffffffffffffffffffffffffffff16815260200190815260200160002060006101000a81548160ff021916908315150217905550600d849080600181540180825580915050600190039060005260206000200160009091909190916101000a81548173ffffffffffffffffffffffffffffffffffffffff021916908373ffffffffffffffffffffffffffffffffffffffff1602179055506003600081548092919061389d9061518a565b91905055508373ffffffffffffffffffffffffffffffffffffffff167fc2d513e5848a176ed9c47c262b65bc07cbf0ea47de289a3cef6197427ca56f42848360026040516138ed939291906151d2565b60405180910390a250505050565b600c6020528060005260406000206000915054906101000a900460ff1681565b600560205280600052604060002060009150905080600001805461393e90614eac565b80601f016020809104026020016040519081016040528092919081815260200182805461396a90614eac565b80156139b75780601f1061398c576101008083540402835291602001916139b7565b820191906000526020600020905b81548152906001019060200180831161399a57829003601f168201915b5050505050908060010180546139cc90614eac565b80601f01602080910402602001604051908101604052809291908181526020018280546139f890614eac565b8015613a455780601f10613a1a57610100808354040283529160200191613a45565b820191906000526020600020905b815481529060010190602001808311613a2857829003601f168201915b5050505050905082565b600080600460008573ffffffffffffffffffffffffffffffffffffffff1673ffffffffffffffffffffffffffffffffffffffff16815260200190815260200160002060020160009054906101000a900460ff16905060006006811115613ab857613ab76141b3565b5b836006811115613acb57613aca6141b3565b5b148015613afc575060006004811115613ae757613ae66141b3565b5b816004811115613afa57613af96141b3565b5b145b15613b0b576001915050613c46565b60016006811115613b1f57613b1e6141b3565b5b836006811115613b3257613b316141b3565b5b148015613b63575060016004811115613b4e57613b4d6141b3565b5b816004811115613b6157613b606141b3565b5b145b15613b72576001915050613c46565b60026006811115613b8657613b856141b3565b5b836006811115613b9957613b986141b3565b5b148015613bca575060026004811115613bb557613bb46141b3565b5b816004811115613bc857613bc76141b3565b5b145b15613bd9576001915050613c46565b60036006811115613bed57613bec6141b3565b5b836006811115613c0057613bff6141b3565b5b148015613c31575060036004811115613c1c57613c1b6141b3565b5b816004811115613c2f57613c2e6141b3565b5b145b15613c40576001915050613c46565b60009150505b92915050565b60405180610140016040528060008152602001600073ffffffffffffffffffffffffffffffffffffffff168152602001606081526020016000815260200160006006811115613c9e57613c9d6141b3565b5b815260200160608152602001606081526020016000815260200160008152602001600081525090565b6040518060a00160405280600073ffffffffffffffffffffffffffffffffffffffff168152602001606081526020016060815260200160006004811115613d1157613d106141b3565b5b815260200160006004811115613d2a57613d296141b3565b5b81525090565b604051806040016040528060608152602001606081525090565b6040518060c00160405280613d5d613d98565b815260200160006006811115613d7657613d756141b3565b5b8152602001600081526020016000815260200160008152602001606081525090565b6040518060800160405280606081526020016060815260200160006004811115613dc557613dc46141b3565b5b815260200160006004811115613dde57613ddd6141b3565b5b81525090565b6000604051905090565b600080fd5b600080fd5b600080fd5b600080fd5b6000601f19601f8301169050919050565b7f4e487b7100000000000000000000000000000000000000000000000000000000600052604160045260246000fd5b613e4b82613e02565b810181811067ffffffffffffffff82111715613e6a57613e69613e13565b5b80604052505050565b6000613e7d613de4565b9050613e898282613e42565b919050565b600067ffffffffffffffff821115613ea957613ea8613e13565b5b613eb282613e02565b9050602081019050919050565b82818337600083830152505050565b6000613ee1613edc84613e8e565b613e73565b905082815260208101848484011115613efd57613efc613dfd565b5b613f08848285613ebf565b509392505050565b600082601f830112613f2557613f24613df8565b5b8135613f35848260208601613ece565b91505092915050565b60058110613f4b57600080fd5b50565b600081359050613f5d81613f3e565b92915050565b600080600060608486031215613f7c57613f7b613dee565b5b600084013567ffffffffffffffff811115613f9a57613f99613df3565b5b613fa686828701613f10565b935050602084013567ffffffffffffffff811115613fc757613fc6613df3565b5b613fd386828701613f10565b9250506040613fe486828701613f4e565b9150509250925092565b6000819050919050565b61400181613fee565b811461400c57600080fd5b50565b60008135905061401e81613ff8565b92915050565b6007811061403157600080fd5b50565b60008135905061404381614024565b92915050565b60008060006060848603121561406257614061613dee565b5b60006140708682870161400f565b935050602061408186828701614034565b925050604084013567ffffffffffffffff8111156140a2576140a1613df3565b5b6140ae86828701613f10565b9150509250925092565b600081519050919050565b600082825260208201905092915050565b6000819050602082019050919050565b6140ed81613fee565b82525050565b600073ffffffffffffffffffffffffffffffffffffffff82169050919050565b600061411e826140f3565b9050919050565b61412e81614113565b82525050565b600081519050919050565b600082825260208201905092915050565b60005b8381101561416e578082015181840152602081019050614153565b60008484015250505050565b600061418582614134565b61418f818561413f565b935061419f818560208601614150565b6141a881613e02565b840191505092915050565b7f4e487b7100000000000000000000000000000000000000000000000000000000600052602160045260246000fd5b600781106141f3576141f26141b3565b5b50565b6000819050614204826141e2565b919050565b6000614214826141f6565b9050919050565b61422481614209565b82525050565b60006101408301600083015161424360008601826140e4565b5060208301516142566020860182614125565b506040830151848203604086015261426e828261417a565b915050606083015161428360608601826140e4565b506080830151614296608086018261421b565b5060a083015184820360a08601526142ae828261417a565b91505060c083015184820360c08601526142c8828261417a565b91505060e08301516142dd60e08601826140e4565b506101008301516142f26101008601826140e4565b506101208301516143076101208601826140e4565b508091505092915050565b600061431e838361422a565b905092915050565b6000602082019050919050565b600061433e826140b8565b61434881856140c3565b93508360208202850161435a856140d4565b8060005b8581101561439657848403895281516143778582614312565b945061438283614326565b925060208a0199505060018101905061435e565b50829750879550505050505092915050565b600060208201905081810360008301526143c28184614333565b905092915050565b600080600080600080600060e0888a0312156143e9576143e8613dee565b5b600088013567ffffffffffffffff81111561440757614406613df3565b5b6144138a828b01613f10565b975050602088013567ffffffffffffffff81111561443457614433613df3565b5b6144408a828b01613f10565b965050604088013567ffffffffffffffff81111561446157614460613df3565b5b61446d8a828b01613f10565b955050606061447e8a828b0161400f565b945050608061448f8a828b0161400f565b93505060a06144a08a828b0161400f565b92505060c06144b18a828b0161400f565b91505092959891949750929550565b600081519050919050565b600082825260208201905092915050565b6000819050602082019050919050565b600581106144fd576144fc6141b3565b5b50565b600081905061450e826144ec565b919050565b600061451e82614500565b9050919050565b61452e81614513565b82525050565b60058110614545576145446141b3565b5b50565b600081905061455682614534565b919050565b600061456682614548565b9050919050565b6145768161455b565b82525050565b600060a0830160008301516145946000860182614125565b50602083015184820360208601526145ac828261417a565b915050604083015184820360408601526145c6828261417a565b91505060608301516145db6060860182614525565b5060808301516145ee608086018261456d565b508091505092915050565b6000614605838361457c565b905092915050565b6000602082019050919050565b6000614625826144c0565b61462f81856144cb565b935083602082028501614641856144dc565b8060005b8581101561467d578484038952815161465e85826145f9565b94506146698361460d565b925060208a01995050600181019050614645565b50829750879550505050505092915050565b600060208201905081810360008301526146a9818461461a565b905092915050565b6000602082840312156146c7576146c6613dee565b5b60006146d58482850161400f565b91505092915050565b6000610140830160008301516146f760008601826140e4565b50602083015161470a6020860182614125565b5060408301518482036040860152614722828261417a565b915050606083015161473760608601826140e4565b50608083015161474a608086018261421b565b5060a083015184820360a0860152614762828261417a565b91505060c083015184820360c086015261477c828261417a565b91505060e083015161479160e08601826140e4565b506101008301516147a66101008601826140e4565b506101208301516147bb6101208601826140e4565b508091505092915050565b600060408301600083015184820360008601526147e3828261417a565b915050602083015184820360208601526147fd828261417a565b9150508091505092915050565b600081519050919050565b600082825260208201905092915050565b6000819050602082019050919050565b60006080830160008301518482036000860152614853828261417a565b9150506020830151848203602086015261486d828261417a565b91505060408301516148826040860182614525565b506060830151614895606086018261456d565b508091505092915050565b600060c08301600083015184820360008601526148bd8282614836565b91505060208301516148d2602086018261421b565b5060408301516148e560408601826140e4565b5060608301516148f860608601826140e4565b50608083015161490b60808601826140e4565b5060a083015184820360a0860152614923828261417a565b9150508091505092915050565b600061493c83836148a0565b905092915050565b6000602082019050919050565b600061495c8261480a565b6149668185614815565b93508360208202850161497885614826565b8060005b858110156149b457848403895281516149958582614930565b94506149a083614944565b925060208a0199505060018101905061497c565b50829750879550505050505092915050565b600060608201905081810360008301526149e081866146de565b905081810360208301526149f481856147c6565b90508181036040830152614a088184614951565b9050949350505050565b614a1b81614113565b82525050565b6000602082019050614a366000830184614a12565b92915050565b60008060408385031215614a5357614a52613dee565b5b600083013567ffffffffffffffff811115614a7157614a70613df3565b5b614a7d85828601613f10565b925050602083013567ffffffffffffffff811115614a9e57614a9d613df3565b5b614aaa85828601613f10565b9150509250929050565b614abd81614113565b8114614ac857600080fd5b50565b600081359050614ada81614ab4565b92915050565b60058110614aed57600080fd5b50565b600081359050614aff81614ae0565b92915050565b60008060408385031215614b1c57614b1b613dee565b5b6000614b2a85828601614acb565b9250506020614b3b85828601614af0565b9150509250929050565b600060208284031215614b5b57614b5a613dee565b5b6000614b6984828501614acb565b91505092915050565b600082825260208201905092915050565b6000614b8e82614134565b614b988185614b72565b9350614ba8818560208601614150565b614bb181613e02565b840191505092915050565b614bc581614513565b82525050565b614bd48161455b565b82525050565b60006080820190508181036000830152614bf48187614b83565b90508181036020830152614c088186614b83565b9050614c176040830185614bbc565b614c246060830184614bcb565b95945050505050565b60008060008060808587031215614c4757614c46613dee565b5b6000614c5587828801614acb565b945050602085013567ffffffffffffffff811115614c7657614c75613df3565b5b614c8287828801613f10565b935050604085013567ffffffffffffffff811115614ca357614ca2613df3565b5b614caf87828801613f10565b9250506060614cc087828801613f4e565b91505092959194509250565b60008115159050919050565b614ce181614ccc565b82525050565b6000602082019050614cfc6000830184614cd8565b92915050565b60006040820190508181036000830152614d1c8185614b83565b90508181036020830152614d308184614b83565b90509392505050565b7f4e616d652f506c61636520746f6f2073686f72742e0000000000000000000000600082015250565b6000614d6f601583614b72565b9150614d7a82614d39565b602082019050919050565b60006020820190508181036000830152614d9e81614d62565b9050919050565b7f5573657220616c7265616479206578697374732e000000000000000000000000600082015250565b6000614ddb601483614b72565b9150614de682614da5565b602082019050919050565b60006020820190508181036000830152614e0a81614dce565b9050919050565b7f4f776e657220646973616c6c6f77656400000000000000000000000000000000600082015250565b6000614e47601083614b72565b9150614e5282614e11565b602082019050919050565b60006020820190508181036000830152614e7681614e3a565b9050919050565b7f4e487b7100000000000000000000000000000000000000000000000000000000600052602260045260246000fd5b60006002820490506001821680614ec457607f821691505b602082108103614ed757614ed6614e7d565b5b50919050565b60008190508160005260206000209050919050565b60006020601f8301049050919050565b600082821b905092915050565b600060088302614f3f7fffffffffffffffffffffffffffffffffffffffffffffffffffffffffffffffff82614f02565b614f498683614f02565b95508019841693508086168417925050509392505050565b6000819050919050565b6000614f86614f81614f7c84613fee565b614f61565b613fee565b9050919050565b6000819050919050565b614fa083614f6b565b614fb4614fac82614f8d565b848454614f0f565b825550505050565b600090565b614fc9614fbc565b614fd4818484614f97565b505050565b5b81811015614ff857614fed600082614fc1565b600181019050614fda565b5050565b601f82111561503d5761500e81614edd565b61501784614ef2565b81016020851015615026578190505b61503a61503285614ef2565b830182614fd9565b50505b505050565b600082821c905092915050565b600061506060001984600802615042565b1980831691505092915050565b6000615079838361504f565b9150826002028217905092915050565b61509282614134565b67ffffffffffffffff8111156150ab576150aa613e13565b5b6150b58254614eac565b6150c0828285614ffc565b600060209050601f8311600181146150f357600084156150e1578287015190505b6150eb858261506d565b865550615153565b601f19841661510186614edd565b60005b8281101561512957848901518255600182019150602085019450602081019050615104565b868310156151465784890151615142601f89168261504f565b8355505b6001600288020188555050505b505050505050565b7f4e487b7100000000000000000000000000000000000000000000000000000000600052601160045260246000fd5b600061519582613fee565b91507fffffffffffffffffffffffffffffffffffffffffffffffffffffffffffffffff82036151c7576151c661515b565b5b600182019050919050565b600060608201905081810360008301526151ec8186614b83565b90506151fb6020830185614bbc565b6152086040830184614bcb565b949350505050565b7f5573657220646f65736e6f742065786973742e00000000000000000000000000600082015250565b6000615246601383614b72565b915061525182615210565b602082019050919050565b6000602082019050818103600083015261527581615239565b9050919050565b7f55736572206973206e6f74206f6e204163746976652053746174652e00000000600082015250565b60006152b2601c83614b72565b91506152bd8261527c565b602082019050919050565b600060208201905081810360008301526152e1816152a5565b9050919050565b7f496e76616c6964207374616765207472616e736974696f6e2e00000000000000600082015250565b600061531e601983614b72565b9150615329826152e8565b602082019050919050565b6000602082019050818103600083015261534d81615311565b9050919050565b7f556e617574686f72697a65642e00000000000000000000000000000000000000600082015250565b600061538a600d83614b72565b915061539582615354565b602082019050919050565b600060208201905081810360008301526153b98161537d565b9050919050565b7f596f75206861766520616c726561647920636865636b2d696e2e000000000000600082015250565b60006153f6601a83614b72565b9150615401826153c0565b602082019050919050565b60006020820190508181036000830152615425816153e9565b9050919050565b600061543782613fee565b915061544283613fee565b925082820390508181111561545a5761545961515b565b5b92915050565b61546981614209565b82525050565b60006040820190506154846000830185615460565b81810360208301526154968184614b83565b90509392505050565b7f4e487b7100000000000000000000000000000000000000000000000000000000600052603260045260246000fd5b7f496e76616c696420626174636800000000000000000000000000000000000000600082015250565b6000615504600d83614b72565b915061550f826154ce565b602082019050919050565b60006020820190508181036000830152615533816154f7565b9050919050565b7f4e616d6520546f6f2073686f7274000000000000000000000000000000000000600082015250565b6000615570600e83614b72565b915061557b8261553a565b602082019050919050565b6000602082019050818103600083015261559f81615563565b9050919050565b7f496e76616c696420707269636500000000000000000000000000000000000000600082015250565b60006155dc600d83614b72565b91506155e7826155a6565b602082019050919050565b6000602082019050818103600083015261560b816155cf565b9050919050565b7f4d616e75666163747572652064617465206d75737420626520706173742e0000600082015250565b6000615648601e83614b72565b915061565382615612565b602082019050919050565b600060208201905081810360008301526156778161563b565b9050919050565b7f4578706972792064617465206d757374206265206166746572206d616e75666160008201527f637475726520646174652e000000000000000000000000000000000000000000602082015250565b60006156da602b83614b72565b91506156e58261567e565b604082019050919050565b60006020820190508181036000830152615709816156cd565b9050919050565b600061571b82613fee565b915061572683613fee565b925082820190508082111561573e5761573d61515b565b5b92915050565b61574d81613fee565b82525050565b6000604082019050818103600083015261576d8185614b83565b905061577c6020830184615744565b9392505050565b7f496e76616c69642050726f647563742049642e00000000000000000000000000600082015250565b60006157b9601383614b72565b91506157c482615783565b602082019050919050565b600060208201905081810360008301526157e8816157ac565b9050919050565b7f416c7265616479206f6e20646573697265642073746167652e00000000000000600082015250565b6000615825601983614b72565b9150615830826157ef565b602082019050919050565b6000602082019050818103600083015261585481615818565b9050919050565b7f496e76616c6964205374616765207472616e736974696f6e2e00000000000000600082015250565b6000615891601983614b72565b915061589c8261585b565b602082019050919050565b600060208201905081810360008301526158c081615884565b9050919050565b7f546f6f2053686f72742072656d61726b2e000000000000000000000000000000600082015250565b60006158fd601183614b72565b9150615908826158c7565b602082019050919050565b6000602082019050818103600083015261592c816158f0565b9050919050565b7f4f6e6c79206f776e65722063616e20706572666f726d2074686973206163746960008201527f6f6e2e0000000000000000000000000000000000000000000000000000000000602082015250565b600061598f602383614b72565b915061599a82615933565b604082019050919050565b600060208201905081810360008301526159be81615982565b9050919050565b7f4e616d6520546f6f2073686f72742e0000000000000000000000000000000000600082015250565b60006159fb600f83614b72565b9150615a06826159c5565b602082019050919050565b60006020820190508181036000830152615a2a816159ee565b9050919050565b60006020820190508181036000830152615a4b8184614b83565b905092915050565b7f496e76616c696420616464726573732e00000000000000000000000000000000600082015250565b6000615a89601083614b72565b9150615a9482615a53565b602082019050919050565b60006020820190508181036000830152615ab881615a7c565b9050919050565b7f416c726561647920696e20646573697265642073746174652e00000000000000600082015250565b6000615af5601983614b72565b9150615b0082615abf565b602082019050919050565b60006020820190508181036000830152615b2481615ae8565b9050919050565b7f55736572206d757374206265204163746976652e000000000000000000000000600082015250565b6000615b61601483614b72565b9150615b6c82615b2b565b602082019050919050565b60006020820190508181036000830152615b9081615b54565b9050919050565b7f55736572206d7573742062652050656e64696e672e0000000000000000000000600082015250565b6000615bcd601583614b72565b9150615bd882615b97565b602082019050919050565b60006020820190508181036000830152615bfc81615bc0565b9050919050565b7f55736572206d7573742062652050656e64696e67206f7220446561637469766160008201527f7465642e00000000000000000000000000000000000000000000000000000000602082015250565b6000615c5f602483614b72565b9150615c6a82615c03565b604082019050919050565b60006020820190508181036000830152615c8e81615c52565b9050919050565b6000604082019050615caa6000830185614bcb565b615cb76020830184614bcb565b939250505056fea2646970667358221220de5c9ef4ec1eaf7e7963a3712769d28f4a0bc1818f99f3d4c459120992375e2a64736f6c634300081c0033",
  "linkReferences": {},
  "deployedLinkReferences": {}
}