{
  "_format": "hh-sol-artifact-1",
  "contractName": "SupplyChain",
  "sourceName": "contracts/Supplychain.sol",
  "abi": [
    {
      "inputs": [],
      "stateMutability": "nonpayable",
      "type": "constructor"
    },
    {
      "anonymous": false,
      "inputs": [
        {
          "indexed": true,
          "internalType": "uint256",
          "name": "batchId",
          "type": "uint256"
        },
        {
          "indexed": false,
          "internalType": "string",
          "name": "name",
          "type": "string"
        }
      ],
      "name": "BatchCreated",
      "type": "event"
    },
    {
      "anonymous": false,
      "inputs": [
        {
          "indexed": true,
          "internalType": "uint256",
          "name": "productId",
          "type": "uint256"
        },
        {
          "indexed": false,
          "internalType": "string",
          "name": "name",
          "type": "string"
        },
        {
          "indexed": false,
          "internalType": "uint256",
          "name": "batchNo",
          "type": "uint256"
        }
      ],
      "name": "ProductAdded",
      "type": "event"
    },
    {
      "anonymous": false,
      "inputs": [
        {
          "indexed": true,
          "internalType": "uint256",
          "name": "productId",
          "type": "uint256"
        },
        {
          "indexed": false,
          "internalType": "enum Stage",
          "name": "newStage",
          "type": "uint8"
        },
        {
          "indexed": false,
          "internalType": "string",
          "name": "remarks",
          "type": "string"
        }
      ],
      "name": "ProductStageUpdated",
      "type": "event"
    },
    {
      "anonymous": false,
      "inputs": [
        {
          "indexed": true,
          "internalType": "address",
          "name": "wallet",
          "type": "address"
        },
        {
          "indexed": false,
          "internalType": "string",
          "name": "name",
          "type": "string"
        },
        {
          "indexed": false,
          "internalType": "enum Role",
          "name": "role",
          "type": "uint8"
        },
        {
          "indexed": false,
          "internalType": "enum UserStatus",
          "name": "status",
          "type": "uint8"
        }
      ],
      "name": "UserAdded",
      "type": "event"
    },
    {
      "anonymous": false,
      "inputs": [
        {
          "indexed": true,
          "internalType": "address",
          "name": "wallet",
          "type": "address"
        },
        {
          "indexed": false,
          "internalType": "enum UserStatus",
          "name": "oldStatus",
          "type": "uint8"
        },
        {
          "indexed": false,
          "internalType": "enum UserStatus",
          "name": "newStatus",
          "type": "uint8"
        }
      ],
      "name": "UserStatusUpdated",
      "type": "event"
    },
    {
      "inputs": [
        {
          "internalType": "string",
          "name": "_name",
          "type": "string"
        },
        {
          "internalType": "string",
          "name": "_productType",
          "type": "string"
        },
        {
          "internalType": "string",
          "name": "_description",
          "type": "string"
        },
        {
          "internalType": "uint256",
          "name": "_batchNo",
          "type": "uint256"
        },
        {
          "internalType": "uint256",
          "name": "_manufacturedDate",
          "type": "uint256"
        },
        {
          "internalType": "uint256",
          "name": "_expiryDate",
          "type": "uint256"
        },
        {
          "internalType": "uint256",
          "name": "_price",
          "type": "uint256"
        }
      ],
      "name": "addProduct",
      "outputs": [],
      "stateMutability": "nonpayable",
      "type": "function"
    },
    {
      "inputs": [
        {
          "internalType": "address",
          "name": "_wallet",
          "type": "address"
        },
        {
          "internalType": "string",
          "name": "_name",
          "type": "string"
        },
        {
          "internalType": "string",
          "name": "_place",
          "type": "string"
        },
        {
          "internalType": "enum Role",
          "name": "_role",
          "type": "uint8"
        }
      ],
      "name": "addUser",
      "outputs": [],
      "stateMutability": "nonpayable",
      "type": "function"
    },
    {
      "inputs": [
        {
          "internalType": "uint256",
          "name": "",
          "type": "uint256"
        }
      ],
      "name": "batches",
      "outputs": [
        {
          "internalType": "string",
          "name": "name",
          "type": "string"
        },
        {
          "internalType": "string",
          "name": "description",
          "type": "string"
        }
      ],
      "stateMutability": "view",
      "type": "function"
    },
    {
      "inputs": [
        {
          "internalType": "string",
          "name": "_name",
          "type": "string"
        },
        {
          "internalType": "string",
          "name": "_description",
          "type": "string"
        }
      ],
      "name": "createBatch",
      "outputs": [],
      "stateMutability": "nonpayable",
      "type": "function"
    },
    {
      "inputs": [],
      "name": "getAllUserList",
      "outputs": [
        {
          "components": [
            {
              "internalType": "address",
              "name": "wallet",
              "type": "address"
            },
            {
              "internalType": "string",
              "name": "name",
              "type": "string"
            },
            {
              "internalType": "string",
              "name": "place",
              "type": "string"
            },
            {
              "internalType": "enum Role",
              "name": "role",
              "type": "uint8"
            },
            {
              "internalType": "enum UserStatus",
              "name": "status",
              "type": "uint8"
            }
          ],
          "internalType": "struct User[]",
          "name": "",
          "type": "tuple[]"
        }
      ],
      "stateMutability": "view",
      "type": "function"
    },
    {
      "inputs": [
        {
          "internalType": "uint256",
          "name": "_productId",
          "type": "uint256"
        }
      ],
      "name": "getProductDetails",
      "outputs": [
        {
          "components": [
            {
              "internalType": "string",
              "name": "name",
              "type": "string"
            },
            {
              "internalType": "uint256",
              "name": "batchNo",
              "type": "uint256"
            },
            {
              "internalType": "enum Stage",
              "name": "stage",
              "type": "uint8"
            },
            {
              "internalType": "string",
              "name": "productType",
              "type": "string"
            },
            {
              "internalType": "string",
              "name": "description",
              "type": "string"
            },
            {
              "internalType": "uint256",
              "name": "manufacturedDate",
              "type": "uint256"
            },
            {
              "internalType": "uint256",
              "name": "expiryDate",
              "type": "uint256"
            },
            {
              "internalType": "uint256",
              "name": "price",
              "type": "uint256"
            }
          ],
          "internalType": "struct Product",
          "name": "product",
          "type": "tuple"
        },
        {
          "components": [
            {
              "internalType": "string",
              "name": "name",
              "type": "string"
            },
            {
              "internalType": "string",
              "name": "description",
              "type": "string"
            }
          ],
          "internalType": "struct Batch",
          "name": "batchDetails",
          "type": "tuple"
        },
        {
          "components": [
            {
              "components": [
                {
                  "internalType": "address",
                  "name": "wallet",
                  "type": "address"
                },
                {
                  "internalType": "string",
                  "name": "name",
                  "type": "string"
                },
                {
                  "internalType": "string",
                  "name": "place",
                  "type": "string"
                },
                {
                  "internalType": "enum Role",
                  "name": "role",
                  "type": "uint8"
                },
                {
                  "internalType": "enum UserStatus",
                  "name": "status",
                  "type": "uint8"
                }
              ],
              "internalType": "struct User",
              "name": "user",
              "type": "tuple"
            },
            {
              "internalType": "enum Stage",
              "name": "stage",
              "type": "uint8"
            },
            {
              "internalType": "uint256",
              "name": "stageCount",
              "type": "uint256"
            },
            {
              "internalType": "uint256",
              "name": "entryTime",
              "type": "uint256"
            },
            {
              "internalType": "uint256",
              "name": "exitTime",
              "type": "uint256"
            },
            {
              "internalType": "string",
              "name": "remark",
              "type": "string"
            }
          ],
          "internalType": "struct StageDetails[]",
          "name": "stageDetails",
          "type": "tuple[]"
        }
      ],
      "stateMutability": "view",
      "type": "function"
    },
    {
      "inputs": [],
      "name": "getProductsByUser",
      "outputs": [
        {
          "components": [
            {
              "internalType": "string",
              "name": "name",
              "type": "string"
            },
            {
              "internalType": "uint256",
              "name": "batchNo",
              "type": "uint256"
            },
            {
              "internalType": "enum Stage",
              "name": "stage",
              "type": "uint8"
            },
            {
              "internalType": "string",
              "name": "productType",
              "type": "string"
            },
            {
              "internalType": "string",
              "name": "description",
              "type": "string"
            },
            {
              "internalType": "uint256",
              "name": "manufacturedDate",
              "type": "uint256"
            },
            {
              "internalType": "uint256",
              "name": "expiryDate",
              "type": "uint256"
            },
            {
              "internalType": "uint256",
              "name": "price",
              "type": "uint256"
            }
          ],
          "internalType": "struct Product[]",
          "name": "",
          "type": "tuple[]"
        }
      ],
      "stateMutability": "view",
      "type": "function"
    },
    {
      "inputs": [
        {
          "internalType": "uint256",
          "name": "_productId",
          "type": "uint256"
        },
        {
          "internalType": "string",
          "name": "_remark",
          "type": "string"
        }
      ],
      "name": "markAsLost",
      "outputs": [],
      "stateMutability": "nonpayable",
      "type": "function"
    },
    {
      "inputs": [],
      "name": "owner",
      "outputs": [
        {
          "internalType": "address",
          "name": "",
          "type": "address"
        }
      ],
      "stateMutability": "view",
      "type": "function"
    },
    {
      "inputs": [
        {
          "internalType": "string",
          "name": "_name",
          "type": "string"
        },
        {
          "internalType": "string",
          "name": "_place",
          "type": "string"
        },
        {
          "internalType": "enum Role",
          "name": "_role",
          "type": "uint8"
        }
      ],
      "name": "registerUser",
      "outputs": [],
      "stateMutability": "nonpayable",
      "type": "function"
    },
    {
      "inputs": [
        {
          "internalType": "uint256",
          "name": "_productId",
          "type": "uint256"
        },
        {
          "internalType": "enum Stage",
          "name": "_newStage",
          "type": "uint8"
        },
        {
          "internalType": "string",
          "name": "_remark",
          "type": "string"
        }
      ],
      "name": "updateProductStage",
      "outputs": [],
      "stateMutability": "nonpayable",
      "type": "function"
    },
    {
      "inputs": [
        {
          "internalType": "address",
          "name": "_wallet",
          "type": "address"
        },
        {
          "internalType": "enum UserStatus",
          "name": "newStatus",
          "type": "uint8"
        }
      ],
      "name": "updateUserStatus",
      "outputs": [],
      "stateMutability": "nonpayable",
      "type": "function"
    },
    {
      "inputs": [
        {
          "internalType": "address",
          "name": "",
          "type": "address"
        }
      ],
      "name": "userExist",
      "outputs": [
        {
          "internalType": "bool",
          "name": "",
          "type": "bool"
        }
      ],
      "stateMutability": "view",
      "type": "function"
    },
    {
      "inputs": [
        {
          "internalType": "address",
          "name": "",
          "type": "address"
        }
      ],
      "name": "users",
      "outputs": [
        {
          "internalType": "address",
          "name": "wallet",
          "type": "address"
        },
        {
          "internalType": "string",
          "name": "name",
          "type": "string"
        },
        {
          "internalType": "string",
          "name": "place",
          "type": "string"
        },
        {
          "internalType": "enum Role",
          "name": "role",
          "type": "uint8"
        },
        {
          "internalType": "enum UserStatus",
          "name": "status",
          "type": "uint8"
        }
      ],
      "stateMutability": "view",
      "type": "function"
    }
  ],
  "bytecode": "0x6080604052348015600f57600080fd5b50336000806101000a81548173ffffffffffffffffffffffffffffffffffffffff021916908373ffffffffffffffffffffffffffffffffffffffff160217905550615ea68061005f6000396000f3fe608060405234801561001057600080fd5b50600436106100ea5760003560e01c806392b8f0211161008c578063aa6baabd11610066578063aa6baabd1461023b578063ab7e7cf614610257578063b32c4d8d14610287578063c8e9e40d146102b8576100ea565b806392b8f021146101cf578063931f0751146101eb578063a87430ba14610207576100ea565b80635849606d116100c85780635849606d14610145578063659070b9146101635780636813b53b1461017f5780638da5cb5b146101b1576100ea565b80632e17a931146100ef578063309d97fb1461010b5780633367d68b14610129575b600080fd5b61010960048036038101906101049190613f7b565b6102d4565b005b6101136106d5565b6040516101209190614295565b60405180910390f35b610143600480360381019061013e91906142e3565b610b9b565b005b61014d6112cf565b60405161015a91906145e9565b60405180910390f35b61017d60048036038101906101789190614630565b611671565b005b6101996004803603810190610194919061469f565b611c32565b6040516101a893929190614920565b60405180910390f35b6101b9612496565b6040516101c6919061497b565b60405180910390f35b6101e960048036038101906101e49190614996565b6124ba565b005b61020560048036038101906102009190614a5f565b6127a5565b005b610221600480360381019061021c9190614a9f565b612c66565b604051610232959493929190614b34565b60405180910390f35b61025560048036038101906102509190614b95565b612de6565b005b610271600480360381019061026c9190614a9f565b6132e5565b60405161027e9190614c4f565b60405180910390f35b6102a1600480360381019061029c919061469f565b613305565b6040516102af929190614c6a565b60405180910390f35b6102d260048036038101906102cd9190614ca1565b613439565b005b6005835111610318576040517f08c379a000000000000000000000000000000000000000000000000000000000815260040161030f90614d49565b60405180910390fd5b600c60003373ffffffffffffffffffffffffffffffffffffffff1673ffffffffffffffffffffffffffffffffffffffff16815260200190815260200160002060009054906101000a900460ff16156103a5576040517f08c379a000000000000000000000000000000000000000000000000000000000815260040161039c90614db5565b60405180910390fd5b60008054906101000a900473ffffffffffffffffffffffffffffffffffffffff1673ffffffffffffffffffffffffffffffffffffffff163373ffffffffffffffffffffffffffffffffffffffff1603610433576040517f08c379a000000000000000000000000000000000000000000000000000000000815260040161042a90614e47565b60405180910390fd5b6040518060a001604052803373ffffffffffffffffffffffffffffffffffffffff168152602001848152602001838152602001826004811115610479576104786140ca565b5b815260200160006004811115610492576104916140ca565b5b815250600460003373ffffffffffffffffffffffffffffffffffffffff1673ffffffffffffffffffffffffffffffffffffffff16815260200190815260200160002060008201518160000160006101000a81548173ffffffffffffffffffffffffffffffffffffffff021916908373ffffffffffffffffffffffffffffffffffffffff16021790555060208201518160010190816105309190615073565b5060408201518160020190816105469190615073565b5060608201518160030160006101000a81548160ff02191690836004811115610572576105716140ca565b5b021790555060808201518160030160016101000a81548160ff021916908360048111156105a2576105a16140ca565b5b02179055509050506001600c60003373ffffffffffffffffffffffffffffffffffffffff1673ffffffffffffffffffffffffffffffffffffffff16815260200190815260200160002060006101000a81548160ff021916908315150217905550600d339080600181540180825580915050600190039060005260206000200160009091909190916101000a81548173ffffffffffffffffffffffffffffffffffffffff021916908373ffffffffffffffffffffffffffffffffffffffff1602179055506003600081548092919061067890615174565b91905055503373ffffffffffffffffffffffffffffffffffffffff167fc2d513e5848a176ed9c47c262b65bc07cbf0ea47de289a3cef6197427ca56f42848360006040516106c8939291906151bc565b60405180910390a2505050565b6060600c60003373ffffffffffffffffffffffffffffffffffffffff1673ffffffffffffffffffffffffffffffffffffffff16815260200190815260200160002060009054906101000a900460ff16610763576040517f08c379a000000000000000000000000000000000000000000000000000000000815260040161075a90615246565b60405180910390fd5b60026004811115610777576107766140ca565b5b600460003373ffffffffffffffffffffffffffffffffffffffff1673ffffffffffffffffffffffffffffffffffffffff16815260200190815260200160002060030160019054906101000a900460ff1660048111156107d9576107d86140ca565b5b14610819576040517f08c379a0000000000000000000000000000000000000000000000000000000008152600401610810906152b2565b60405180910390fd5b6000600a60003373ffffffffffffffffffffffffffffffffffffffff1673ffffffffffffffffffffffffffffffffffffffff1681526020019081526020016000208054806020026020016040519081016040528092919081815260200182805480156108a457602002820191906000526020600020905b815481526020019060010190808311610890575b5050505050905060008151905060008167ffffffffffffffff8111156108cd576108cc613e2b565b5b60405190808252806020026020018201604052801561090657816020015b6108f3613cd4565b8152602001906001900390816108eb5790505b50905060005b82811015610b91576006600085838151811061092b5761092a6152d2565b5b602002602001015181526020019081526020016000206040518061010001604052908160008201805461095d90614e96565b80601f016020809104026020016040519081016040528092919081815260200182805461098990614e96565b80156109d65780601f106109ab576101008083540402835291602001916109d6565b820191906000526020600020905b8154815290600101906020018083116109b957829003601f168201915b50505050508152602001600182015481526020016002820160009054906101000a900460ff166006811115610a0e57610a0d6140ca565b5b6006811115610a2057610a1f6140ca565b5b8152602001600382018054610a3490614e96565b80601f0160208091040260200160405190810160405280929190818152602001828054610a6090614e96565b8015610aad5780601f10610a8257610100808354040283529160200191610aad565b820191906000526020600020905b815481529060010190602001808311610a9057829003601f168201915b50505050508152602001600482018054610ac690614e96565b80601f0160208091040260200160405190810160405280929190818152602001828054610af290614e96565b8015610b3f5780601f10610b1457610100808354040283529160200191610b3f565b820191906000526020600020905b815481529060010190602001808311610b2257829003601f168201915b505050505081526020016005820154815260200160068201548152602001600782015481525050828281518110610b7957610b786152d2565b5b6020026020010181905250808060010191505061090c565b5080935050505090565b600c60003373ffffffffffffffffffffffffffffffffffffffff1673ffffffffffffffffffffffffffffffffffffffff16815260200190815260200160002060009054906101000a900460ff16610c27576040517f08c379a0000000000000000000000000000000000000000000000000000000008152600401610c1e90615246565b60405180910390fd5b60026004811115610c3b57610c3a6140ca565b5b600460003373ffffffffffffffffffffffffffffffffffffffff1673ffffffffffffffffffffffffffffffffffffffff16815260200190815260200160002060030160019054906101000a900460ff166004811115610c9d57610c9c6140ca565b5b14610cdd576040517f08c379a0000000000000000000000000000000000000000000000000000000008152600401610cd4906152b2565b60405180910390fd5b60006004811115610cf157610cf06140ca565b5b600460003373ffffffffffffffffffffffffffffffffffffffff1673ffffffffffffffffffffffffffffffffffffffff16815260200190815260200160002060030160009054906101000a900460ff166004811115610d5357610d526140ca565b5b14610d93576040517f08c379a0000000000000000000000000000000000000000000000000000000008152600401610d8a90615373565b60405180910390fd5b600060025411610dd8576040517f08c379a0000000000000000000000000000000000000000000000000000000008152600401610dcf90615405565b60405180910390fd5b600084118015610dea57506002548411155b610e29576040517f08c379a0000000000000000000000000000000000000000000000000000000008152600401610e2090615471565b60405180910390fd5b428310610e6b576040517f08c379a0000000000000000000000000000000000000000000000000000000008152600401610e6290615503565b60405180910390fd5b828211610ead576040517f08c379a0000000000000000000000000000000000000000000000000000000008152600401610ea490615595565b60405180910390fd5b60016000815480929190610ec090615174565b919050555060405180610100016040528088815260200185815260200160006006811115610ef157610ef06140ca565b5b8152602001878152602001868152602001848152602001838152602001828152506006600060015481526020019081526020016000206000820151816000019081610f3c9190615073565b506020820151816001015560408201518160020160006101000a81548160ff02191690836006811115610f7257610f716140ca565b5b02179055506060820151816003019081610f8c9190615073565b506080820151816004019081610fa29190615073565b5060a0820151816005015560c0820151816006015560e082015181600701559050506009600085815260200190815260200160002060015490806001815401808255809150506001900390600052602060002001600090919091909150556001600760006001548152602001908152602001600020600082825461102691906155b5565b92505081905550600a60003373ffffffffffffffffffffffffffffffffffffffff1673ffffffffffffffffffffffffffffffffffffffff16815260200190815260200160002060015490806001815401808255809150506001900390600052602060002001600090919091909150556001600b60003373ffffffffffffffffffffffffffffffffffffffff1673ffffffffffffffffffffffffffffffffffffffff1681526020019081526020016000206000600154815260200190815260200160002060006101000a81548160ff0219169083151502179055506040518060c001604052803373ffffffffffffffffffffffffffffffffffffffff1681526020014281526020016000815260200160076000600154815260200190815260200160002054815260200160006006811115611163576111626140ca565b5b81526020016040518060400160405280600d81526020017f4d616e7566616374757265642e00000000000000000000000000000000000000815250815250600860006001548152602001908152602001600020600060076000600154815260200190815260200160002054815260200190815260200160002060008201518160000160006101000a81548173ffffffffffffffffffffffffffffffffffffffff021916908373ffffffffffffffffffffffffffffffffffffffff16021790555060208201518160010155604082015181600201556060820151816003015560808201518160040160006101000a81548160ff0219169083600681111561126c5761126b6140ca565b5b021790555060a08201518160050190816112869190615073565b509050506001547fcca07c742c5274e8b72111ba69566aa4442450bfc50bd897ea38d0170d1accfc88866040516112be9291906155f8565b60405180910390a250505050505050565b606060008054906101000a900473ffffffffffffffffffffffffffffffffffffffff1673ffffffffffffffffffffffffffffffffffffffff163373ffffffffffffffffffffffffffffffffffffffff161461135f576040517f08c379a00000000000000000000000000000000000000000000000000000000081526004016113569061569a565b60405180910390fd5b600060035467ffffffffffffffff81111561137d5761137c613e2b565b5b6040519080825280602002602001820160405280156113b657816020015b6113a3613d2b565b81526020019060019003908161139b5790505b50905060005b6003548110156116695760046000600d83815481106113de576113dd6152d2565b5b9060005260206000200160009054906101000a900473ffffffffffffffffffffffffffffffffffffffff1673ffffffffffffffffffffffffffffffffffffffff1673ffffffffffffffffffffffffffffffffffffffff1681526020019081526020016000206040518060a00160405290816000820160009054906101000a900473ffffffffffffffffffffffffffffffffffffffff1673ffffffffffffffffffffffffffffffffffffffff1673ffffffffffffffffffffffffffffffffffffffff1681526020016001820180546114b490614e96565b80601f01602080910402602001604051908101604052809291908181526020018280546114e090614e96565b801561152d5780601f106115025761010080835404028352916020019161152d565b820191906000526020600020905b81548152906001019060200180831161151057829003601f168201915b5050505050815260200160028201805461154690614e96565b80601f016020809104026020016040519081016040528092919081815260200182805461157290614e96565b80156115bf5780601f10611594576101008083540402835291602001916115bf565b820191906000526020600020905b8154815290600101906020018083116115a257829003601f168201915b505050505081526020016003820160009054906101000a900460ff1660048111156115ed576115ec6140ca565b5b60048111156115ff576115fe6140ca565b5b81526020016003820160019054906101000a900460ff166004811115611628576116276140ca565b5b600481111561163a576116396140ca565b5b81525050828281518110611651576116506152d2565b5b602002602001018190525080806001019150506113bc565b508091505090565b600c60003373ffffffffffffffffffffffffffffffffffffffff1673ffffffffffffffffffffffffffffffffffffffff16815260200190815260200160002060009054906101000a900460ff166116fd576040517f08c379a00000000000000000000000000000000000000000000000000000000081526004016116f490615246565b60405180910390fd5b60026004811115611711576117106140ca565b5b600460003373ffffffffffffffffffffffffffffffffffffffff1673ffffffffffffffffffffffffffffffffffffffff16815260200190815260200160002060030160019054906101000a900460ff166004811115611773576117726140ca565b5b146117b3576040517f08c379a00000000000000000000000000000000000000000000000000000000081526004016117aa906152b2565b60405180910390fd5b6006600084815260200190815260200160002060020160009054906101000a900460ff1660068111156117e9576117e86140ca565b5b8260068111156117fc576117fb6140ca565b5b101561183d576040517f08c379a000000000000000000000000000000000000000000000000000000000815260040161183490615706565b60405180910390fd5b6118473383613a0b565b611886576040517f08c379a000000000000000000000000000000000000000000000000000000000815260040161187d90615798565b60405180910390fd5b600b60003373ffffffffffffffffffffffffffffffffffffffff1673ffffffffffffffffffffffffffffffffffffffff168152602001908152602001600020600084815260200190815260200160002060009054906101000a900460ff1615611924576040517f08c379a000000000000000000000000000000000000000000000000000000000815260040161191b9061582a565b60405180910390fd5b816006600085815260200190815260200160002060020160006101000a81548160ff0219169083600681111561195d5761195c6140ca565b5b021790555060076000848152602001908152602001600020600081548092919061198690615174565b9190505550600a60003373ffffffffffffffffffffffffffffffffffffffff1673ffffffffffffffffffffffffffffffffffffffff1681526020019081526020016000208390806001815401808255809150506001900390600052602060002001600090919091909150556001600b60003373ffffffffffffffffffffffffffffffffffffffff1673ffffffffffffffffffffffffffffffffffffffff168152602001908152602001600020600085815260200190815260200160002060006101000a81548160ff0219169083151502179055506040518060c001604052803373ffffffffffffffffffffffffffffffffffffffff1681526020014281526020016000815260200160076000868152602001908152602001600020548152602001836006811115611aba57611ab96140ca565b5b8152602001828152506008600085815260200190815260200160002060006007600087815260200190815260200160002054815260200190815260200160002060008201518160000160006101000a81548173ffffffffffffffffffffffffffffffffffffffff021916908373ffffffffffffffffffffffffffffffffffffffff16021790555060208201518160010155604082015181600201556060820151816003015560808201518160040160006101000a81548160ff02191690836006811115611b8a57611b896140ca565b5b021790555060a0820151816005019081611ba49190615073565b509050504260086000858152602001908152602001600020600060016007600088815260200190815260200160002054611bde919061584a565b815260200190815260200160002060020181905550827f81d42ac9e3d46884f2be5e2b66b43e389b2a0f31342d07a3f71d2090017851698383604051611c2592919061588d565b60405180910390a2505050565b611c3a613cd4565b611c42613d94565b606060006007600086815260200190815260200160002054905060008167ffffffffffffffff811115611c7857611c77613e2b565b5b604051908082528060200260200182016040528015611cb157816020015b611c9e613dae565b815260200190600190039081611c965790505b5090506000600190505b8281116120ef576040518060c0016040528060046000600860008c8152602001908152602001600020600086815260200190815260200160002060000160009054906101000a900473ffffffffffffffffffffffffffffffffffffffff1673ffffffffffffffffffffffffffffffffffffffff1673ffffffffffffffffffffffffffffffffffffffff1681526020019081526020016000206040518060a00160405290816000820160009054906101000a900473ffffffffffffffffffffffffffffffffffffffff1673ffffffffffffffffffffffffffffffffffffffff1673ffffffffffffffffffffffffffffffffffffffff168152602001600182018054611dc490614e96565b80601f0160208091040260200160405190810160405280929190818152602001828054611df090614e96565b8015611e3d5780601f10611e1257610100808354040283529160200191611e3d565b820191906000526020600020905b815481529060010190602001808311611e2057829003601f168201915b50505050508152602001600282018054611e5690614e96565b80601f0160208091040260200160405190810160405280929190818152602001828054611e8290614e96565b8015611ecf5780601f10611ea457610100808354040283529160200191611ecf565b820191906000526020600020905b815481529060010190602001808311611eb257829003601f168201915b505050505081526020016003820160009054906101000a900460ff166004811115611efd57611efc6140ca565b5b6004811115611f0f57611f0e6140ca565b5b81526020016003820160019054906101000a900460ff166004811115611f3857611f376140ca565b5b6004811115611f4a57611f496140ca565b5b815250508152602001600860008a8152602001908152602001600020600084815260200190815260200160002060040160009054906101000a900460ff166006811115611f9a57611f996140ca565b5b8152602001828152602001600860008a81526020019081526020016000206000848152602001908152602001600020600101548152602001600860008a81526020019081526020016000206000848152602001908152602001600020600201548152602001600860008a81526020019081526020016000206000848152602001908152602001600020600501805461203190614e96565b80601f016020809104026020016040519081016040528092919081815260200182805461205d90614e96565b80156120aa5780601f1061207f576101008083540402835291602001916120aa565b820191906000526020600020905b81548152906001019060200180831161208d57829003601f168201915b5050505050815250826001836120c0919061584a565b815181106120d1576120d06152d2565b5b602002602001018190525080806120e790615174565b915050611cbb565b506006600087815260200190815260200160002060056000600660008a815260200190815260200160002060010154815260200190815260200160002082826040518061010001604052908160008201805461214a90614e96565b80601f016020809104026020016040519081016040528092919081815260200182805461217690614e96565b80156121c35780601f10612198576101008083540402835291602001916121c3565b820191906000526020600020905b8154815290600101906020018083116121a657829003601f168201915b50505050508152602001600182015481526020016002820160009054906101000a900460ff1660068111156121fb576121fa6140ca565b5b600681111561220d5761220c6140ca565b5b815260200160038201805461222190614e96565b80601f016020809104026020016040519081016040528092919081815260200182805461224d90614e96565b801561229a5780601f1061226f5761010080835404028352916020019161229a565b820191906000526020600020905b81548152906001019060200180831161227d57829003601f168201915b505050505081526020016004820180546122b390614e96565b80601f01602080910402602001604051908101604052809291908181526020018280546122df90614e96565b801561232c5780601f106123015761010080835404028352916020019161232c565b820191906000526020600020905b81548152906001019060200180831161230f57829003601f168201915b50505050508152602001600582015481526020016006820154815260200160078201548152505092508160405180604001604052908160008201805461237190614e96565b80601f016020809104026020016040519081016040528092919081815260200182805461239d90614e96565b80156123ea5780601f106123bf576101008083540402835291602001916123ea565b820191906000526020600020905b8154815290600101906020018083116123cd57829003601f168201915b5050505050815260200160018201805461240390614e96565b80601f016020809104026020016040519081016040528092919081815260200182805461242f90614e96565b801561247c5780601f106124515761010080835404028352916020019161247c565b820191906000526020600020905b81548152906001019060200180831161245f57829003601f168201915b505050505081525050915094509450945050509193909250565b60008054906101000a900473ffffffffffffffffffffffffffffffffffffffff1681565b600c60003373ffffffffffffffffffffffffffffffffffffffff1673ffffffffffffffffffffffffffffffffffffffff16815260200190815260200160002060009054906101000a900460ff16612546576040517f08c379a000000000000000000000000000000000000000000000000000000000815260040161253d90615246565b60405180910390fd5b6002600481111561255a576125596140ca565b5b600460003373ffffffffffffffffffffffffffffffffffffffff1673ffffffffffffffffffffffffffffffffffffffff16815260200190815260200160002060030160019054906101000a900460ff1660048111156125bc576125bb6140ca565b5b146125fc576040517f08c379a00000000000000000000000000000000000000000000000000000000081526004016125f3906152b2565b60405180910390fd5b600060048111156126105761260f6140ca565b5b600460003373ffffffffffffffffffffffffffffffffffffffff1673ffffffffffffffffffffffffffffffffffffffff16815260200190815260200160002060030160009054906101000a900460ff166004811115612672576126716140ca565b5b146126b2576040517f08c379a00000000000000000000000000000000000000000000000000000000081526004016126a99061592f565b60405180910390fd5b60058251116126f6576040517f08c379a00000000000000000000000000000000000000000000000000000000081526004016126ed90614d49565b60405180910390fd5b6002600081548092919061270990615174565b9190505550604051806040016040528083815260200182815250600560006002548152602001908152602001600020600082015181600001908161274d9190615073565b5060208201518160010190816127639190615073565b509050506002547f65d0897ef90523e0e840598aac93f29c40c60164ddb22532dfd3a7951575737683604051612799919061594f565b60405180910390a25050565b60008054906101000a900473ffffffffffffffffffffffffffffffffffffffff1673ffffffffffffffffffffffffffffffffffffffff163373ffffffffffffffffffffffffffffffffffffffff1614612833576040517f08c379a000000000000000000000000000000000000000000000000000000000815260040161282a9061569a565b60405180910390fd5b600073ffffffffffffffffffffffffffffffffffffffff168273ffffffffffffffffffffffffffffffffffffffff16036128a2576040517f08c379a0000000000000000000000000000000000000000000000000000000008152600401612899906159bd565b60405180910390fd5b6000600460008473ffffffffffffffffffffffffffffffffffffffff1673ffffffffffffffffffffffffffffffffffffffff16815260200190815260200160002060030160019054906101000a900460ff169050816004811115612909576129086140ca565b5b81600481111561291c5761291b6140ca565b5b0361295c576040517f08c379a000000000000000000000000000000000000000000000000000000000815260040161295390615a4f565b60405180910390fd5b60048081111561296f5761296e6140ca565b5b826004811115612982576129816140ca565b5b036129f3576002600481111561299b5761299a6140ca565b5b8160048111156129ae576129ad6140ca565b5b146129ee576040517f08c379a00000000000000000000000000000000000000000000000000000000081526004016129e590615ae1565b60405180910390fd5b612ba7565b60016004811115612a0757612a066140ca565b5b826004811115612a1a57612a196140ca565b5b03612ae35760006004811115612a3357612a326140ca565b5b816004811115612a4657612a456140ca565b5b14612a86576040517f08c379a0000000000000000000000000000000000000000000000000000000008152600401612a7d90615b73565b60405180910390fd5b6000600c60008573ffffffffffffffffffffffffffffffffffffffff1673ffffffffffffffffffffffffffffffffffffffff16815260200190815260200160002060006101000a81548160ff021916908315150217905550612ba6565b60026004811115612af757612af66140ca565b5b826004811115612b0a57612b096140ca565b5b03612ba55760006004811115612b2357612b226140ca565b5b816004811115612b3657612b356140ca565b5b1480612b655750600480811115612b5057612b4f6140ca565b5b816004811115612b6357612b626140ca565b5b145b612ba4576040517f08c379a0000000000000000000000000000000000000000000000000000000008152600401612b9b90615c05565b60405180910390fd5b5b5b5b81600460008573ffffffffffffffffffffffffffffffffffffffff1673ffffffffffffffffffffffffffffffffffffffff16815260200190815260200160002060030160016101000a81548160ff02191690836004811115612c0c57612c0b6140ca565b5b02179055508273ffffffffffffffffffffffffffffffffffffffff167f975ac4961d0adbdc3da20d9f9993760d66928d93dfa2dee4bb79815b266530e28284604051612c59929190615c25565b60405180910390a2505050565b60046020528060005260406000206000915090508060000160009054906101000a900473ffffffffffffffffffffffffffffffffffffffff1690806001018054612caf90614e96565b80601f0160208091040260200160405190810160405280929190818152602001828054612cdb90614e96565b8015612d285780601f10612cfd57610100808354040283529160200191612d28565b820191906000526020600020905b815481529060010190602001808311612d0b57829003601f168201915b505050505090806002018054612d3d90614e96565b80601f0160208091040260200160405190810160405280929190818152602001828054612d6990614e96565b8015612db65780601f10612d8b57610100808354040283529160200191612db6565b820191906000526020600020905b815481529060010190602001808311612d9957829003601f168201915b5050505050908060030160009054906101000a900460ff16908060030160019054906101000a900460ff16905085565b60008054906101000a900473ffffffffffffffffffffffffffffffffffffffff1673ffffffffffffffffffffffffffffffffffffffff163373ffffffffffffffffffffffffffffffffffffffff1614612e74576040517f08c379a0000000000000000000000000000000000000000000000000000000008152600401612e6b9061569a565b60405180910390fd5b600073ffffffffffffffffffffffffffffffffffffffff168473ffffffffffffffffffffffffffffffffffffffff1603612ee3576040517f08c379a0000000000000000000000000000000000000000000000000000000008152600401612eda906159bd565b60405180910390fd5b6005835111612f27576040517f08c379a0000000000000000000000000000000000000000000000000000000008152600401612f1e90614d49565b60405180910390fd5b600c60008573ffffffffffffffffffffffffffffffffffffffff1673ffffffffffffffffffffffffffffffffffffffff16815260200190815260200160002060009054906101000a900460ff1615612fb4576040517f08c379a0000000000000000000000000000000000000000000000000000000008152600401612fab90614db5565b60405180910390fd5b60008054906101000a900473ffffffffffffffffffffffffffffffffffffffff1673ffffffffffffffffffffffffffffffffffffffff168473ffffffffffffffffffffffffffffffffffffffff1603613042576040517f08c379a000000000000000000000000000000000000000000000000000000000815260040161303990614e47565b60405180910390fd5b6040518060a001604052808573ffffffffffffffffffffffffffffffffffffffff168152602001848152602001838152602001826004811115613088576130876140ca565b5b8152602001600260048111156130a1576130a06140ca565b5b815250600460008673ffffffffffffffffffffffffffffffffffffffff1673ffffffffffffffffffffffffffffffffffffffff16815260200190815260200160002060008201518160000160006101000a81548173ffffffffffffffffffffffffffffffffffffffff021916908373ffffffffffffffffffffffffffffffffffffffff160217905550602082015181600101908161313f9190615073565b5060408201518160020190816131559190615073565b5060608201518160030160006101000a81548160ff02191690836004811115613181576131806140ca565b5b021790555060808201518160030160016101000a81548160ff021916908360048111156131b1576131b06140ca565b5b02179055509050506001600c60008673ffffffffffffffffffffffffffffffffffffffff1673ffffffffffffffffffffffffffffffffffffffff16815260200190815260200160002060006101000a81548160ff021916908315150217905550600d849080600181540180825580915050600190039060005260206000200160009091909190916101000a81548173ffffffffffffffffffffffffffffffffffffffff021916908373ffffffffffffffffffffffffffffffffffffffff1602179055506003600081548092919061328790615174565b91905055508373ffffffffffffffffffffffffffffffffffffffff167fc2d513e5848a176ed9c47c262b65bc07cbf0ea47de289a3cef6197427ca56f42848360026040516132d7939291906151bc565b60405180910390a250505050565b600c6020528060005260406000206000915054906101000a900460ff1681565b600560205280600052604060002060009150905080600001805461332890614e96565b80601f016020809104026020016040519081016040528092919081815260200182805461335490614e96565b80156133a15780601f10613376576101008083540402835291602001916133a1565b820191906000526020600020905b81548152906001019060200180831161338457829003601f168201915b5050505050908060010180546133b690614e96565b80601f01602080910402602001604051908101604052809291908181526020018280546133e290614e96565b801561342f5780601f106134045761010080835404028352916020019161342f565b820191906000526020600020905b81548152906001019060200180831161341257829003601f168201915b5050505050905082565b8160008111801561344c57506001548111155b61348b576040517f08c379a000000000000000000000000000000000000000000000000000000000815260040161348290615c9a565b60405180910390fd5b600c60003373ffffffffffffffffffffffffffffffffffffffff1673ffffffffffffffffffffffffffffffffffffffff16815260200190815260200160002060009054906101000a900460ff16613517576040517f08c379a000000000000000000000000000000000000000000000000000000000815260040161350e90615246565b60405180910390fd5b6002600481111561352b5761352a6140ca565b5b600460003373ffffffffffffffffffffffffffffffffffffffff1673ffffffffffffffffffffffffffffffffffffffff16815260200190815260200160002060030160019054906101000a900460ff16600481111561358d5761358c6140ca565b5b146135cd576040517f08c379a00000000000000000000000000000000000000000000000000000000081526004016135c4906152b2565b60405180910390fd5b6006808111156135e0576135df6140ca565b5b6006600085815260200190815260200160002060020160009054906101000a900460ff166006811115613616576136156140ca565b5b03613656576040517f08c379a000000000000000000000000000000000000000000000000000000000815260040161364d90615d2c565b60405180910390fd5b3373ffffffffffffffffffffffffffffffffffffffff166008600085815260200190815260200160002060006007600087815260200190815260200160002054815260200190815260200160002060000160009054906101000a900473ffffffffffffffffffffffffffffffffffffffff1673ffffffffffffffffffffffffffffffffffffffff161461371e576040517f08c379a000000000000000000000000000000000000000000000000000000000815260040161371590615dbe565b60405180910390fd5b6000825111613762576040517f08c379a000000000000000000000000000000000000000000000000000000000815260040161375990615e50565b60405180910390fd5b600680600085815260200190815260200160002060020160006101000a81548160ff0219169083600681111561379b5761379a6140ca565b5b02179055506007600084815260200190815260200160002060008154809291906137c490615174565b91905055506001600b60003373ffffffffffffffffffffffffffffffffffffffff1673ffffffffffffffffffffffffffffffffffffffff168152602001908152602001600020600085815260200190815260200160002060006101000a81548160ff0219169083151502179055506040518060c001604052803373ffffffffffffffffffffffffffffffffffffffff1681526020014281526020016000815260200160076000868152602001908152602001600020548152602001600680811115613892576138916140ca565b5b8152602001838152506008600085815260200190815260200160002060006007600087815260200190815260200160002054815260200190815260200160002060008201518160000160006101000a81548173ffffffffffffffffffffffffffffffffffffffff021916908373ffffffffffffffffffffffffffffffffffffffff16021790555060208201518160010155604082015181600201556060820151816003015560808201518160040160006101000a81548160ff02191690836006811115613962576139616140ca565b5b021790555060a082015181600501908161397c9190615073565b5090505042600860008581526020019081526020016000206000600160076000888152602001908152602001600020546139b6919061584a565b815260200190815260200160002060020181905550827f81d42ac9e3d46884f2be5e2b66b43e389b2a0f31342d07a3f71d2090017851696006846040516139fe92919061588d565b60405180910390a2505050565b600080600460008573ffffffffffffffffffffffffffffffffffffffff1673ffffffffffffffffffffffffffffffffffffffff16815260200190815260200160002060030160009054906101000a900460ff16905060006006811115613a7457613a736140ca565b5b836006811115613a8757613a866140ca565b5b148015613ab8575060006004811115613aa357613aa26140ca565b5b816004811115613ab657613ab56140ca565b5b145b15613ac7576001915050613cce565b60016006811115613adb57613ada6140ca565b5b836006811115613aee57613aed6140ca565b5b148015613b1f575060016004811115613b0a57613b096140ca565b5b816004811115613b1d57613b1c6140ca565b5b145b15613b2e576001915050613cce565b60026006811115613b4257613b416140ca565b5b836006811115613b5557613b546140ca565b5b148015613b86575060026004811115613b7157613b706140ca565b5b816004811115613b8457613b836140ca565b5b145b15613b95576001915050613cce565b60036006811115613ba957613ba86140ca565b5b836006811115613bbc57613bbb6140ca565b5b148015613bed575060036004811115613bd857613bd76140ca565b5b816004811115613beb57613bea6140ca565b5b145b15613bfc576001915050613cce565b60046006811115613c1057613c0f6140ca565b5b836006811115613c2357613c226140ca565b5b148015613c535750600480811115613c3e57613c3d6140ca565b5b816004811115613c5157613c506140ca565b5b145b15613c62576001915050613cce565b60056006811115613c7657613c756140ca565b5b836006811115613c8957613c886140ca565b5b148015613cb95750600480811115613ca457613ca36140ca565b5b816004811115613cb757613cb66140ca565b5b145b15613cc8576001915050613cce565b60009150505b92915050565b604051806101000160405280606081526020016000815260200160006006811115613d0257613d016140ca565b5b815260200160608152602001606081526020016000815260200160008152602001600081525090565b6040518060a00160405280600073ffffffffffffffffffffffffffffffffffffffff168152602001606081526020016060815260200160006004811115613d7557613d746140ca565b5b815260200160006004811115613d8e57613d8d6140ca565b5b81525090565b604051806040016040528060608152602001606081525090565b6040518060c00160405280613dc1613d2b565b815260200160006006811115613dda57613dd96140ca565b5b8152602001600081526020016000815260200160008152602001606081525090565b6000604051905090565b600080fd5b600080fd5b600080fd5b600080fd5b6000601f19601f8301169050919050565b7f4e487b7100000000000000000000000000000000000000000000000000000000600052604160045260246000fd5b613e6382613e1a565b810181811067ffffffffffffffff82111715613e8257613e81613e2b565b5b80604052505050565b6000613e95613dfc565b9050613ea18282613e5a565b919050565b600067ffffffffffffffff821115613ec157613ec0613e2b565b5b613eca82613e1a565b9050602081019050919050565b82818337600083830152505050565b6000613ef9613ef484613ea6565b613e8b565b905082815260208101848484011115613f1557613f14613e15565b5b613f20848285613ed7565b509392505050565b600082601f830112613f3d57613f3c613e10565b5b8135613f4d848260208601613ee6565b91505092915050565b60058110613f6357600080fd5b50565b600081359050613f7581613f56565b92915050565b600080600060608486031215613f9457613f93613e06565b5b600084013567ffffffffffffffff811115613fb257613fb1613e0b565b5b613fbe86828701613f28565b935050602084013567ffffffffffffffff811115613fdf57613fde613e0b565b5b613feb86828701613f28565b9250506040613ffc86828701613f66565b9150509250925092565b600081519050919050565b600082825260208201905092915050565b6000819050602082019050919050565b600081519050919050565b600082825260208201905092915050565b60005b8381101561406c578082015181840152602081019050614051565b60008484015250505050565b600061408382614032565b61408d818561403d565b935061409d81856020860161404e565b6140a681613e1a565b840191505092915050565b6000819050919050565b6140c4816140b1565b82525050565b7f4e487b7100000000000000000000000000000000000000000000000000000000600052602160045260246000fd5b6007811061410a576141096140ca565b5b50565b600081905061411b826140f9565b919050565b600061412b8261410d565b9050919050565b61413b81614120565b82525050565b600061010083016000830151848203600086015261415f8282614078565b915050602083015161417460208601826140bb565b5060408301516141876040860182614132565b506060830151848203606086015261419f8282614078565b915050608083015184820360808601526141b98282614078565b91505060a08301516141ce60a08601826140bb565b5060c08301516141e160c08601826140bb565b5060e08301516141f460e08601826140bb565b508091505092915050565b600061420b8383614141565b905092915050565b6000602082019050919050565b600061422b82614006565b6142358185614011565b93508360208202850161424785614022565b8060005b85811015614283578484038952815161426485826141ff565b945061426f83614213565b925060208a0199505060018101905061424b565b50829750879550505050505092915050565b600060208201905081810360008301526142af8184614220565b905092915050565b6142c0816140b1565b81146142cb57600080fd5b50565b6000813590506142dd816142b7565b92915050565b600080600080600080600060e0888a03121561430257614301613e06565b5b600088013567ffffffffffffffff8111156143205761431f613e0b565b5b61432c8a828b01613f28565b975050602088013567ffffffffffffffff81111561434d5761434c613e0b565b5b6143598a828b01613f28565b965050604088013567ffffffffffffffff81111561437a57614379613e0b565b5b6143868a828b01613f28565b95505060606143978a828b016142ce565b94505060806143a88a828b016142ce565b93505060a06143b98a828b016142ce565b92505060c06143ca8a828b016142ce565b91505092959891949750929550565b600081519050919050565b600082825260208201905092915050565b6000819050602082019050919050565b600073ffffffffffffffffffffffffffffffffffffffff82169050919050565b600061443082614405565b9050919050565b61444081614425565b82525050565b60058110614457576144566140ca565b5b50565b600081905061446882614446565b919050565b60006144788261445a565b9050919050565b6144888161446d565b82525050565b6005811061449f5761449e6140ca565b5b50565b60008190506144b08261448e565b919050565b60006144c0826144a2565b9050919050565b6144d0816144b5565b82525050565b600060a0830160008301516144ee6000860182614437565b50602083015184820360208601526145068282614078565b915050604083015184820360408601526145208282614078565b9150506060830151614535606086018261447f565b50608083015161454860808601826144c7565b508091505092915050565b600061455f83836144d6565b905092915050565b6000602082019050919050565b600061457f826143d9565b61458981856143e4565b93508360208202850161459b856143f5565b8060005b858110156145d757848403895281516145b88582614553565b94506145c383614567565b925060208a0199505060018101905061459f565b50829750879550505050505092915050565b600060208201905081810360008301526146038184614574565b905092915050565b6007811061461857600080fd5b50565b60008135905061462a8161460b565b92915050565b60008060006060848603121561464957614648613e06565b5b6000614657868287016142ce565b93505060206146688682870161461b565b925050604084013567ffffffffffffffff81111561468957614688613e0b565b5b61469586828701613f28565b9150509250925092565b6000602082840312156146b5576146b4613e06565b5b60006146c3848285016142ce565b91505092915050565b60006101008301600083015184820360008601526146ea8282614078565b91505060208301516146ff60208601826140bb565b5060408301516147126040860182614132565b506060830151848203606086015261472a8282614078565b915050608083015184820360808601526147448282614078565b91505060a083015161475960a08601826140bb565b5060c083015161476c60c08601826140bb565b5060e083015161477f60e08601826140bb565b508091505092915050565b600060408301600083015184820360008601526147a78282614078565b915050602083015184820360208601526147c18282614078565b9150508091505092915050565b600081519050919050565b600082825260208201905092915050565b6000819050602082019050919050565b600060c083016000830151848203600086015261481782826144d6565b915050602083015161482c6020860182614132565b50604083015161483f60408601826140bb565b50606083015161485260608601826140bb565b50608083015161486560808601826140bb565b5060a083015184820360a086015261487d8282614078565b9150508091505092915050565b600061489683836147fa565b905092915050565b6000602082019050919050565b60006148b6826147ce565b6148c081856147d9565b9350836020820285016148d2856147ea565b8060005b8581101561490e57848403895281516148ef858261488a565b94506148fa8361489e565b925060208a019950506001810190506148d6565b50829750879550505050505092915050565b6000606082019050818103600083015261493a81866146cc565b9050818103602083015261494e818561478a565b9050818103604083015261496281846148ab565b9050949350505050565b61497581614425565b82525050565b6000602082019050614990600083018461496c565b92915050565b600080604083850312156149ad576149ac613e06565b5b600083013567ffffffffffffffff8111156149cb576149ca613e0b565b5b6149d785828601613f28565b925050602083013567ffffffffffffffff8111156149f8576149f7613e0b565b5b614a0485828601613f28565b9150509250929050565b614a1781614425565b8114614a2257600080fd5b50565b600081359050614a3481614a0e565b92915050565b60058110614a4757600080fd5b50565b600081359050614a5981614a3a565b92915050565b60008060408385031215614a7657614a75613e06565b5b6000614a8485828601614a25565b9250506020614a9585828601614a4a565b9150509250929050565b600060208284031215614ab557614ab4613e06565b5b6000614ac384828501614a25565b91505092915050565b600082825260208201905092915050565b6000614ae882614032565b614af28185614acc565b9350614b0281856020860161404e565b614b0b81613e1a565b840191505092915050565b614b1f8161446d565b82525050565b614b2e816144b5565b82525050565b600060a082019050614b49600083018861496c565b8181036020830152614b5b8187614add565b90508181036040830152614b6f8186614add565b9050614b7e6060830185614b16565b614b8b6080830184614b25565b9695505050505050565b60008060008060808587031215614baf57614bae613e06565b5b6000614bbd87828801614a25565b945050602085013567ffffffffffffffff811115614bde57614bdd613e0b565b5b614bea87828801613f28565b935050604085013567ffffffffffffffff811115614c0b57614c0a613e0b565b5b614c1787828801613f28565b9250506060614c2887828801613f66565b91505092959194509250565b60008115159050919050565b614c4981614c34565b82525050565b6000602082019050614c646000830184614c40565b92915050565b60006040820190508181036000830152614c848185614add565b90508181036020830152614c988184614add565b90509392505050565b60008060408385031215614cb857614cb7613e06565b5b6000614cc6858286016142ce565b925050602083013567ffffffffffffffff811115614ce757614ce6613e0b565b5b614cf385828601613f28565b9150509250929050565b7f50726f706572206e616d652069732072657175697265642e0000000000000000600082015250565b6000614d33601883614acc565b9150614d3e82614cfd565b602082019050919050565b60006020820190508181036000830152614d6281614d26565b9050919050565b7f5573657220616c7265616479206578697374732e000000000000000000000000600082015250565b6000614d9f601483614acc565b9150614daa82614d69565b602082019050919050565b60006020820190508181036000830152614dce81614d92565b9050919050565b7f4f776e65722063616e206e6f742062652072656769737465726564206173207560008201527f7365722e00000000000000000000000000000000000000000000000000000000602082015250565b6000614e31602483614acc565b9150614e3c82614dd5565b604082019050919050565b60006020820190508181036000830152614e6081614e24565b9050919050565b7f4e487b7100000000000000000000000000000000000000000000000000000000600052602260045260246000fd5b60006002820490506001821680614eae57607f821691505b602082108103614ec157614ec0614e67565b5b50919050565b60008190508160005260206000209050919050565b60006020601f8301049050919050565b600082821b905092915050565b600060088302614f297fffffffffffffffffffffffffffffffffffffffffffffffffffffffffffffffff82614eec565b614f338683614eec565b95508019841693508086168417925050509392505050565b6000819050919050565b6000614f70614f6b614f66846140b1565b614f4b565b6140b1565b9050919050565b6000819050919050565b614f8a83614f55565b614f9e614f9682614f77565b848454614ef9565b825550505050565b600090565b614fb3614fa6565b614fbe818484614f81565b505050565b5b81811015614fe257614fd7600082614fab565b600181019050614fc4565b5050565b601f82111561502757614ff881614ec7565b61500184614edc565b81016020851015615010578190505b61502461501c85614edc565b830182614fc3565b50505b505050565b600082821c905092915050565b600061504a6000198460080261502c565b1980831691505092915050565b60006150638383615039565b9150826002028217905092915050565b61507c82614032565b67ffffffffffffffff81111561509557615094613e2b565b5b61509f8254614e96565b6150aa828285614fe6565b600060209050601f8311600181146150dd57600084156150cb578287015190505b6150d58582615057565b86555061513d565b601f1984166150eb86614ec7565b60005b82811015615113578489015182556001820191506020850194506020810190506150ee565b86831015615130578489015161512c601f891682615039565b8355505b6001600288020188555050505b505050505050565b7f4e487b7100000000000000000000000000000000000000000000000000000000600052601160045260246000fd5b600061517f826140b1565b91507fffffffffffffffffffffffffffffffffffffffffffffffffffffffffffffffff82036151b1576151b0615145565b5b600182019050919050565b600060608201905081810360008301526151d68186614add565b90506151e56020830185614b16565b6151f26040830184614b25565b949350505050565b7f5573657220646f65736e6f742065786973742e00000000000000000000000000600082015250565b6000615230601383614acc565b915061523b826151fa565b602082019050919050565b6000602082019050818103600083015261525f81615223565b9050919050565b7f55736572206973206e6f74206f6e204163746976652053746174652e00000000600082015250565b600061529c601c83614acc565b91506152a782615266565b602082019050919050565b600060208201905081810360008301526152cb8161528f565b9050919050565b7f4e487b7100000000000000000000000000000000000000000000000000000000600052603260045260246000fd5b7f556e617574686f72697a656420726f6c6520666f72206164642070726f64756360008201527f742e000000000000000000000000000000000000000000000000000000000000602082015250565b600061535d602283614acc565b915061536882615301565b604082019050919050565b6000602082019050818103600083015261538c81615350565b9050919050565b7f4e6f206261746368206578697374732e2043726561746520612062617463682060008201527f66697273742e0000000000000000000000000000000000000000000000000000602082015250565b60006153ef602683614acc565b91506153fa82615393565b604082019050919050565b6000602082019050818103600083015261541e816153e2565b9050919050565b7f496e76616c6964204261746368204e756d6265722e0000000000000000000000600082015250565b600061545b601583614acc565b915061546682615425565b602082019050919050565b6000602082019050818103600083015261548a8161544e565b9050919050565b7f4d616e75666163747572652064617465206d75737420626520696e207468652060008201527f706173742e000000000000000000000000000000000000000000000000000000602082015250565b60006154ed602583614acc565b91506154f882615491565b604082019050919050565b6000602082019050818103600083015261551c816154e0565b9050919050565b7f4578706972792064617465206d757374206265206166746572206d616e75666160008201527f637475726520646174652e000000000000000000000000000000000000000000602082015250565b600061557f602b83614acc565b915061558a82615523565b604082019050919050565b600060208201905081810360008301526155ae81615572565b9050919050565b60006155c0826140b1565b91506155cb836140b1565b92508282019050808211156155e3576155e2615145565b5b92915050565b6155f2816140b1565b82525050565b600060408201905081810360008301526156128185614add565b905061562160208301846155e9565b9392505050565b7f4f6e6c79206f776e65722063616e20706572666f726d2074686973206163746960008201527f6f6e2e0000000000000000000000000000000000000000000000000000000000602082015250565b6000615684602383614acc565b915061568f82615628565b604082019050919050565b600060208201905081810360008301526156b381615677565b9050919050565b7f496e76616c6964207374616765207472616e736974696f6e2e00000000000000600082015250565b60006156f0601983614acc565b91506156fb826156ba565b602082019050919050565b6000602082019050818103600083015261571f816156e3565b9050919050565b7f556e617574686f72697a656420726f6c6520666f72207468697320737461676560008201527f2e00000000000000000000000000000000000000000000000000000000000000602082015250565b6000615782602183614acc565b915061578d82615726565b604082019050919050565b600060208201905081810360008301526157b181615775565b9050919050565b7f596f75206861766520616c72656164792075706461746520746869732070726f60008201527f647563742e000000000000000000000000000000000000000000000000000000602082015250565b6000615814602583614acc565b915061581f826157b8565b604082019050919050565b6000602082019050818103600083015261584381615807565b9050919050565b6000615855826140b1565b9150615860836140b1565b925082820390508181111561587857615877615145565b5b92915050565b61588781614120565b82525050565b60006040820190506158a2600083018561587e565b81810360208301526158b48184614add565b90509392505050565b7f556e617574686f72697a656420726f6c6520666f72206372656174652062617460008201527f63682e0000000000000000000000000000000000000000000000000000000000602082015250565b6000615919602383614acc565b9150615924826158bd565b604082019050919050565b600060208201905081810360008301526159488161590c565b9050919050565b600060208201905081810360008301526159698184614add565b905092915050565b7f496e76616c696420616464726573732e00000000000000000000000000000000600082015250565b60006159a7601083614acc565b91506159b282615971565b602082019050919050565b600060208201905081810360008301526159d68161599a565b9050919050565b7f5573657220697320616c726561647920696e207468652064657369726564207360008201527f746174652e000000000000000000000000000000000000000000000000000000602082015250565b6000615a39602583614acc565b9150615a44826159dd565b604082019050919050565b60006020820190508181036000830152615a6881615a2c565b9050919050565b7f55736572206d7573742062652041637469766520746f2062652044656163746960008201527f76617465642e0000000000000000000000000000000000000000000000000000602082015250565b6000615acb602683614acc565b9150615ad682615a6f565b604082019050919050565b60006020820190508181036000830152615afa81615abe565b9050919050565b7f55736572206d7573742062652050656e64696e6720746f2062652052656a656360008201527f7465642e00000000000000000000000000000000000000000000000000000000602082015250565b6000615b5d602483614acc565b9150615b6882615b01565b604082019050919050565b60006020820190508181036000830152615b8c81615b50565b9050919050565b7f55736572206d7573742062652050656e64696e67206f7220446561637469766160008201527f74656420746f206265204163746976617465642e000000000000000000000000602082015250565b6000615bef603483614acc565b9150615bfa82615b93565b604082019050919050565b60006020820190508181036000830152615c1e81615be2565b9050919050565b6000604082019050615c3a6000830185614b25565b615c476020830184614b25565b9392505050565b7f496e76616c69642050726f647563742049642e00000000000000000000000000600082015250565b6000615c84601383614acc565b9150615c8f82615c4e565b602082019050919050565b60006020820190508181036000830152615cb381615c77565b9050919050565b7f50726f6475637420697320616c7265616479206d61726b6564206173206c6f7360008201527f742e000000000000000000000000000000000000000000000000000000000000602082015250565b6000615d16602283614acc565b9150615d2182615cba565b604082019050919050565b60006020820190508181036000830152615d4581615d09565b9050919050565b7f596f7520617265206e6f7420617574686f72697a656420746f206d61726b207060008201527f726f64756374206173204c6f73742e0000000000000000000000000000000000602082015250565b6000615da8602f83614acc565b9150615db382615d4c565b604082019050919050565b60006020820190508181036000830152615dd781615d9b565b9050919050565b7f52656d61726b20697320726571756972656420746f206d61726b206173206c6f60008201527f73742e0000000000000000000000000000000000000000000000000000000000602082015250565b6000615e3a602383614acc565b9150615e4582615dde565b604082019050919050565b60006020820190508181036000830152615e6981615e2d565b905091905056fea264697066735822122091363197deff02b03667dc7a62f1d95906ca4bfe13b0b503cd3b4f6901dd4f3064736f6c634300081c0033",
  "linkReferences": {},
  "deployedLinkReferences": {}
}