{
  "_format": "hh-sol-artifact-1",
  "contractName": "SupplyChain",
  "sourceName": "contracts/Supplychain.sol",
  "abi": [
    {
      "inputs": [],
      "stateMutability": "nonpayable",
      "type": "constructor"
    },
    {
      "anonymous": false,
      "inputs": [
        {
          "indexed": true,
          "internalType": "uint256",
          "name": "batchId",
          "type": "uint256"
        },
        {
          "indexed": false,
          "internalType": "string",
          "name": "name",
          "type": "string"
        }
      ],
      "name": "BatchCreated",
      "type": "event"
    },
    {
      "anonymous": false,
      "inputs": [
        {
          "indexed": true,
          "internalType": "uint256",
          "name": "productId",
          "type": "uint256"
        },
        {
          "indexed": false,
          "internalType": "string",
          "name": "name",
          "type": "string"
        },
        {
          "indexed": false,
          "internalType": "uint256",
          "name": "batchNo",
          "type": "uint256"
        }
      ],
      "name": "ProductAdded",
      "type": "event"
    },
    {
      "anonymous": false,
      "inputs": [
        {
          "indexed": true,
          "internalType": "uint256",
          "name": "productId",
          "type": "uint256"
        },
        {
          "indexed": false,
          "internalType": "enum Stage",
          "name": "newStage",
          "type": "uint8"
        },
        {
          "indexed": false,
          "internalType": "string",
          "name": "remarks",
          "type": "string"
        }
      ],
      "name": "ProductStageUpdated",
      "type": "event"
    },
    {
      "anonymous": false,
      "inputs": [
        {
          "indexed": true,
          "internalType": "address",
          "name": "wallet",
          "type": "address"
        },
        {
          "indexed": false,
          "internalType": "string",
          "name": "name",
          "type": "string"
        },
        {
          "indexed": false,
          "internalType": "enum Role",
          "name": "role",
          "type": "uint8"
        },
        {
          "indexed": false,
          "internalType": "enum UserStatus",
          "name": "status",
          "type": "uint8"
        }
      ],
      "name": "UserAdded",
      "type": "event"
    },
    {
      "anonymous": false,
      "inputs": [
        {
          "indexed": true,
          "internalType": "address",
          "name": "wallet",
          "type": "address"
        },
        {
          "indexed": false,
          "internalType": "enum UserStatus",
          "name": "oldStatus",
          "type": "uint8"
        },
        {
          "indexed": false,
          "internalType": "enum UserStatus",
          "name": "newStatus",
          "type": "uint8"
        }
      ],
      "name": "UserStatusUpdated",
      "type": "event"
    },
    {
      "inputs": [
        {
          "internalType": "string",
          "name": "_name",
          "type": "string"
        },
        {
          "internalType": "string",
          "name": "_productType",
          "type": "string"
        },
        {
          "internalType": "string",
          "name": "_description",
          "type": "string"
        },
        {
          "internalType": "uint256",
          "name": "_batchNo",
          "type": "uint256"
        },
        {
          "internalType": "uint256",
          "name": "_manufacturedDate",
          "type": "uint256"
        },
        {
          "internalType": "uint256",
          "name": "_expiryDate",
          "type": "uint256"
        },
        {
          "internalType": "uint256",
          "name": "_price",
          "type": "uint256"
        }
      ],
      "name": "addProduct",
      "outputs": [],
      "stateMutability": "nonpayable",
      "type": "function"
    },
    {
      "inputs": [
        {
          "internalType": "address",
          "name": "_wallet",
          "type": "address"
        },
        {
          "internalType": "string",
          "name": "_name",
          "type": "string"
        },
        {
          "internalType": "string",
          "name": "_place",
          "type": "string"
        },
        {
          "internalType": "enum Role",
          "name": "_role",
          "type": "uint8"
        }
      ],
      "name": "addUser",
      "outputs": [],
      "stateMutability": "nonpayable",
      "type": "function"
    },
    {
      "inputs": [
        {
          "internalType": "uint256",
          "name": "",
          "type": "uint256"
        }
      ],
      "name": "batches",
      "outputs": [
        {
          "internalType": "string",
          "name": "name",
          "type": "string"
        },
        {
          "internalType": "string",
          "name": "description",
          "type": "string"
        }
      ],
      "stateMutability": "view",
      "type": "function"
    },
    {
      "inputs": [
        {
          "internalType": "string",
          "name": "_name",
          "type": "string"
        },
        {
          "internalType": "string",
          "name": "_description",
          "type": "string"
        }
      ],
      "name": "createBatch",
      "outputs": [],
      "stateMutability": "nonpayable",
      "type": "function"
    },
    {
      "inputs": [],
      "name": "getAllUserList",
      "outputs": [
        {
          "components": [
            {
              "internalType": "address",
              "name": "wallet",
              "type": "address"
            },
            {
              "internalType": "string",
              "name": "name",
              "type": "string"
            },
            {
              "internalType": "string",
              "name": "place",
              "type": "string"
            },
            {
              "internalType": "enum Role",
              "name": "role",
              "type": "uint8"
            },
            {
              "internalType": "enum UserStatus",
              "name": "status",
              "type": "uint8"
            }
          ],
          "internalType": "struct UserResponseStruct[]",
          "name": "",
          "type": "tuple[]"
        }
      ],
      "stateMutability": "view",
      "type": "function"
    },
    {
      "inputs": [
        {
          "internalType": "uint256",
          "name": "_productId",
          "type": "uint256"
        }
      ],
      "name": "getProductDetails",
      "outputs": [
        {
          "components": [
            {
              "internalType": "address",
              "name": "ownerWallet",
              "type": "address"
            },
            {
              "internalType": "string",
              "name": "name",
              "type": "string"
            },
            {
              "internalType": "uint256",
              "name": "batchNo",
              "type": "uint256"
            },
            {
              "internalType": "enum Stage",
              "name": "stage",
              "type": "uint8"
            },
            {
              "internalType": "string",
              "name": "productType",
              "type": "string"
            },
            {
              "internalType": "string",
              "name": "description",
              "type": "string"
            },
            {
              "internalType": "uint256",
              "name": "manufacturedDate",
              "type": "uint256"
            },
            {
              "internalType": "uint256",
              "name": "expiryDate",
              "type": "uint256"
            },
            {
              "internalType": "uint256",
              "name": "price",
              "type": "uint256"
            }
          ],
          "internalType": "struct Product",
          "name": "product",
          "type": "tuple"
        },
        {
          "components": [
            {
              "internalType": "string",
              "name": "name",
              "type": "string"
            },
            {
              "internalType": "string",
              "name": "description",
              "type": "string"
            }
          ],
          "internalType": "struct Batch",
          "name": "batchDetails",
          "type": "tuple"
        },
        {
          "components": [
            {
              "components": [
                {
                  "internalType": "string",
                  "name": "name",
                  "type": "string"
                },
                {
                  "internalType": "string",
                  "name": "place",
                  "type": "string"
                },
                {
                  "internalType": "enum Role",
                  "name": "role",
                  "type": "uint8"
                },
                {
                  "internalType": "enum UserStatus",
                  "name": "status",
                  "type": "uint8"
                }
              ],
              "internalType": "struct User",
              "name": "user",
              "type": "tuple"
            },
            {
              "internalType": "enum Stage",
              "name": "stage",
              "type": "uint8"
            },
            {
              "internalType": "uint256",
              "name": "stageCount",
              "type": "uint256"
            },
            {
              "internalType": "uint256",
              "name": "entryTime",
              "type": "uint256"
            },
            {
              "internalType": "uint256",
              "name": "exitTime",
              "type": "uint256"
            },
            {
              "internalType": "string",
              "name": "remark",
              "type": "string"
            }
          ],
          "internalType": "struct StageDetails[]",
          "name": "stageDetails",
          "type": "tuple[]"
        }
      ],
      "stateMutability": "view",
      "type": "function"
    },
    {
      "inputs": [],
      "name": "getProductsByUser",
      "outputs": [
        {
          "components": [
            {
              "internalType": "uint256",
              "name": "productId",
              "type": "uint256"
            },
            {
              "internalType": "address",
              "name": "ownerWallet",
              "type": "address"
            },
            {
              "internalType": "string",
              "name": "name",
              "type": "string"
            },
            {
              "internalType": "uint256",
              "name": "batchNo",
              "type": "uint256"
            },
            {
              "internalType": "enum Stage",
              "name": "stage",
              "type": "uint8"
            },
            {
              "internalType": "string",
              "name": "productType",
              "type": "string"
            },
            {
              "internalType": "string",
              "name": "description",
              "type": "string"
            },
            {
              "internalType": "uint256",
              "name": "manufacturedDate",
              "type": "uint256"
            },
            {
              "internalType": "uint256",
              "name": "expiryDate",
              "type": "uint256"
            },
            {
              "internalType": "uint256",
              "name": "price",
              "type": "uint256"
            }
          ],
          "internalType": "struct ProductResponseStruct[]",
          "name": "",
          "type": "tuple[]"
        }
      ],
      "stateMutability": "view",
      "type": "function"
    },
    {
      "inputs": [],
      "name": "owner",
      "outputs": [
        {
          "internalType": "address",
          "name": "",
          "type": "address"
        }
      ],
      "stateMutability": "view",
      "type": "function"
    },
    {
      "inputs": [
        {
          "internalType": "uint256",
          "name": "_productId",
          "type": "uint256"
        },
        {
          "internalType": "enum Stage",
          "name": "_newStage",
          "type": "uint8"
        },
        {
          "internalType": "string",
          "name": "_remark",
          "type": "string"
        }
      ],
      "name": "productCheckIn",
      "outputs": [],
      "stateMutability": "nonpayable",
      "type": "function"
    },
    {
      "inputs": [
        {
          "internalType": "uint256",
          "name": "_productId",
          "type": "uint256"
        },
        {
          "internalType": "enum Stage",
          "name": "_newStage",
          "type": "uint8"
        },
        {
          "internalType": "string",
          "name": "_remark",
          "type": "string"
        }
      ],
      "name": "productStageUpdate",
      "outputs": [],
      "stateMutability": "nonpayable",
      "type": "function"
    },
    {
      "inputs": [
        {
          "internalType": "string",
          "name": "_name",
          "type": "string"
        },
        {
          "internalType": "string",
          "name": "_place",
          "type": "string"
        },
        {
          "internalType": "enum Role",
          "name": "_role",
          "type": "uint8"
        }
      ],
      "name": "registerUser",
      "outputs": [],
      "stateMutability": "nonpayable",
      "type": "function"
    },
    {
      "inputs": [
        {
          "internalType": "address",
          "name": "_wallet",
          "type": "address"
        },
        {
          "internalType": "enum UserStatus",
          "name": "newStatus",
          "type": "uint8"
        }
      ],
      "name": "updateUserStatus",
      "outputs": [],
      "stateMutability": "nonpayable",
      "type": "function"
    },
    {
      "inputs": [
        {
          "internalType": "address",
          "name": "",
          "type": "address"
        }
      ],
      "name": "userExist",
      "outputs": [
        {
          "internalType": "bool",
          "name": "",
          "type": "bool"
        }
      ],
      "stateMutability": "view",
      "type": "function"
    },
    {
      "inputs": [
        {
          "internalType": "address",
          "name": "",
          "type": "address"
        }
      ],
      "name": "users",
      "outputs": [
        {
          "internalType": "string",
          "name": "name",
          "type": "string"
        },
        {
          "internalType": "string",
          "name": "place",
          "type": "string"
        },
        {
          "internalType": "enum Role",
          "name": "role",
          "type": "uint8"
        },
        {
          "internalType": "enum UserStatus",
          "name": "status",
          "type": "uint8"
        }
      ],
      "stateMutability": "view",
      "type": "function"
    }
  ],
  "bytecode": "0x6080604052348015600f57600080fd5b50336000806101000a81548173ffffffffffffffffffffffffffffffffffffffff021916908373ffffffffffffffffffffffffffffffffffffffff160217905550615d848061005f6000396000f3fe608060405234801561001057600080fd5b50600436106100ea5760003560e01c80638da5cb5b1161008c578063a87430ba11610066578063a87430ba14610223578063aa6baabd14610256578063ab7e7cf614610272578063b32c4d8d146102a2576100ea565b80638da5cb5b146101cd57806392b8f021146101eb578063931f075114610207576100ea565b80633367d68b116100c85780633367d68b14610145578063397cc283146101615780635849606d1461017d5780636813b53b1461019b576100ea565b80632e17a931146100ef57806330359d261461010b578063309d97fb14610127575b600080fd5b61010960048036038101906101049190614008565b6102d3565b005b610125600480360381019061012091906140ee565b610680565b005b61012f610c96565b60405161013c919061444d565b60405180910390f35b61015f600480360381019061015a919061446f565b611199565b005b61017b600480360381019061017691906140ee565b611974565b005b610185611fa5565b6040516101929190614734565b60405180910390f35b6101b560048036038101906101b09190614756565b6122f2565b6040516101c493929190614a56565b60405180910390f35b6101d5612b56565b6040516101e29190614ab1565b60405180910390f35b61020560048036038101906102009190614acc565b612b7a565b005b610221600480360381019061021c9190614b95565b612e66565b005b61023d60048036038101906102389190614bd5565b613327565b60405161024d9493929190614c6a565b60405180910390f35b610270600480360381019061026b9190614cbd565b613481565b005b61028c60048036038101906102879190614bd5565b61392c565b6040516102999190614d77565b60405180910390f35b6102bc60048036038101906102b79190614756565b61394c565b6040516102ca929190614d92565b60405180910390f35b60028351101580156102e757506002825110155b610326576040517f08c379a000000000000000000000000000000000000000000000000000000000815260040161031d90614e15565b60405180910390fd5b600c60003373ffffffffffffffffffffffffffffffffffffffff1673ffffffffffffffffffffffffffffffffffffffff16815260200190815260200160002060009054906101000a900460ff16156103b3576040517f08c379a00000000000000000000000000000000000000000000000000000000081526004016103aa90614e81565b60405180910390fd5b60008054906101000a900473ffffffffffffffffffffffffffffffffffffffff1673ffffffffffffffffffffffffffffffffffffffff163373ffffffffffffffffffffffffffffffffffffffff1603610441576040517f08c379a000000000000000000000000000000000000000000000000000000000815260040161043890614eed565b60405180910390fd5b604051806080016040528084815260200183815260200182600481111561046b5761046a614258565b5b81526020016000600481111561048457610483614258565b5b815250600460003373ffffffffffffffffffffffffffffffffffffffff1673ffffffffffffffffffffffffffffffffffffffff16815260200190815260200160002060008201518160000190816104db9190615119565b5060208201518160010190816104f19190615119565b5060408201518160020160006101000a81548160ff0219169083600481111561051d5761051c614258565b5b021790555060608201518160020160016101000a81548160ff0219169083600481111561054d5761054c614258565b5b02179055509050506001600c60003373ffffffffffffffffffffffffffffffffffffffff1673ffffffffffffffffffffffffffffffffffffffff16815260200190815260200160002060006101000a81548160ff021916908315150217905550600d339080600181540180825580915050600190039060005260206000200160009091909190916101000a81548173ffffffffffffffffffffffffffffffffffffffff021916908373ffffffffffffffffffffffffffffffffffffffff160217905550600360008154809291906106239061521a565b91905055503373ffffffffffffffffffffffffffffffffffffffff167fc2d513e5848a176ed9c47c262b65bc07cbf0ea47de289a3cef6197427ca56f428483600060405161067393929190615262565b60405180910390a2505050565b600c60003373ffffffffffffffffffffffffffffffffffffffff1673ffffffffffffffffffffffffffffffffffffffff16815260200190815260200160002060009054906101000a900460ff1661070c576040517f08c379a0000000000000000000000000000000000000000000000000000000008152600401610703906152ec565b60405180910390fd5b600260048111156107205761071f614258565b5b600460003373ffffffffffffffffffffffffffffffffffffffff1673ffffffffffffffffffffffffffffffffffffffff16815260200190815260200160002060020160019054906101000a900460ff16600481111561078257610781614258565b5b146107c2576040517f08c379a00000000000000000000000000000000000000000000000000000000081526004016107b990615358565b60405180910390fd5b6006600084815260200190815260200160002060030160009054906101000a900460ff1660068111156107f8576107f7614258565b5b82600681111561080b5761080a614258565b5b101561084c576040517f08c379a0000000000000000000000000000000000000000000000000000000008152600401610843906153c4565b60405180910390fd5b6108563383613a80565b610895576040517f08c379a000000000000000000000000000000000000000000000000000000000815260040161088c90615430565b60405180910390fd5b600b60003373ffffffffffffffffffffffffffffffffffffffff1673ffffffffffffffffffffffffffffffffffffffff168152602001908152602001600020600084815260200190815260200160002060009054906101000a900460ff1615610933576040517f08c379a000000000000000000000000000000000000000000000000000000000815260040161092a9061549c565b60405180910390fd5b816006600085815260200190815260200160002060030160006101000a81548160ff0219169083600681111561096c5761096b614258565b5b0217905550336006600085815260200190815260200160002060000160006101000a81548173ffffffffffffffffffffffffffffffffffffffff021916908373ffffffffffffffffffffffffffffffffffffffff1602179055506007600084815260200190815260200160002060008154809291906109ea9061521a565b9190505550600a60003373ffffffffffffffffffffffffffffffffffffffff1673ffffffffffffffffffffffffffffffffffffffff1681526020019081526020016000208390806001815401808255809150506001900390600052602060002001600090919091909150556001600b60003373ffffffffffffffffffffffffffffffffffffffff1673ffffffffffffffffffffffffffffffffffffffff168152602001908152602001600020600085815260200190815260200160002060006101000a81548160ff0219169083151502179055506040518060c001604052803373ffffffffffffffffffffffffffffffffffffffff1681526020014281526020016000815260200160076000868152602001908152602001600020548152602001836006811115610b1e57610b1d614258565b5b8152602001828152506008600085815260200190815260200160002060006007600087815260200190815260200160002054815260200190815260200160002060008201518160000160006101000a81548173ffffffffffffffffffffffffffffffffffffffff021916908373ffffffffffffffffffffffffffffffffffffffff16021790555060208201518160010155604082015181600201556060820151816003015560808201518160040160006101000a81548160ff02191690836006811115610bee57610bed614258565b5b021790555060a0820151816005019081610c089190615119565b509050504260086000858152602001908152602001600020600060016007600088815260200190815260200160002054610c4291906154bc565b815260200190815260200160002060020181905550827f81d42ac9e3d46884f2be5e2b66b43e389b2a0f31342d07a3f71d2090017851698383604051610c899291906154ff565b60405180910390a2505050565b6060600c60003373ffffffffffffffffffffffffffffffffffffffff1673ffffffffffffffffffffffffffffffffffffffff16815260200190815260200160002060009054906101000a900460ff16610d24576040517f08c379a0000000000000000000000000000000000000000000000000000000008152600401610d1b906152ec565b60405180910390fd5b60026004811115610d3857610d37614258565b5b600460003373ffffffffffffffffffffffffffffffffffffffff1673ffffffffffffffffffffffffffffffffffffffff16815260200190815260200160002060020160019054906101000a900460ff166004811115610d9a57610d99614258565b5b14610dda576040517f08c379a0000000000000000000000000000000000000000000000000000000008152600401610dd190615358565b60405180910390fd5b6000600a60003373ffffffffffffffffffffffffffffffffffffffff1673ffffffffffffffffffffffffffffffffffffffff168152602001908152602001600020805480602002602001604051908101604052809291908181526020018280548015610e6557602002820191906000526020600020905b815481526020019060010190808311610e51575b5050505050905060008151905060008167ffffffffffffffff811115610e8e57610e8d613eb8565b5b604051908082528060200260200182016040528015610ec757816020015b610eb4613c7d565b815260200190600190039081610eac5790505b50905060005b8281101561118f576000848281518110610eea57610ee961552f565b5b6020026020010151905060006006600083815260200190815260200160002090506040518061014001604052808381526020018260000160009054906101000a900473ffffffffffffffffffffffffffffffffffffffff1673ffffffffffffffffffffffffffffffffffffffff168152602001826001018054610f6c90614f3c565b80601f0160208091040260200160405190810160405280929190818152602001828054610f9890614f3c565b8015610fe55780601f10610fba57610100808354040283529160200191610fe5565b820191906000526020600020905b815481529060010190602001808311610fc857829003601f168201915b50505050508152602001826002015481526020018260030160009054906101000a900460ff16600681111561101d5761101c614258565b5b815260200182600401805461103190614f3c565b80601f016020809104026020016040519081016040528092919081815260200182805461105d90614f3c565b80156110aa5780601f1061107f576101008083540402835291602001916110aa565b820191906000526020600020905b81548152906001019060200180831161108d57829003601f168201915b505050505081526020018260050180546110c390614f3c565b80601f01602080910402602001604051908101604052809291908181526020018280546110ef90614f3c565b801561113c5780601f106111115761010080835404028352916020019161113c565b820191906000526020600020905b81548152906001019060200180831161111f57829003601f168201915b50505050508152602001826006015481526020018260070154815260200182600801548152508484815181106111755761117461552f565b5b602002602001018190525050508080600101915050610ecd565b5080935050505090565b600c60003373ffffffffffffffffffffffffffffffffffffffff1673ffffffffffffffffffffffffffffffffffffffff16815260200190815260200160002060009054906101000a900460ff16611225576040517f08c379a000000000000000000000000000000000000000000000000000000000815260040161121c906152ec565b60405180910390fd5b6002600481111561123957611238614258565b5b600460003373ffffffffffffffffffffffffffffffffffffffff1673ffffffffffffffffffffffffffffffffffffffff16815260200190815260200160002060020160019054906101000a900460ff16600481111561129b5761129a614258565b5b146112db576040517f08c379a00000000000000000000000000000000000000000000000000000000081526004016112d290615358565b60405180910390fd5b600060048111156112ef576112ee614258565b5b600460003373ffffffffffffffffffffffffffffffffffffffff1673ffffffffffffffffffffffffffffffffffffffff16815260200190815260200160002060020160009054906101000a900460ff16600481111561135157611350614258565b5b14611391576040517f08c379a000000000000000000000000000000000000000000000000000000000815260040161138890615430565b60405180910390fd5b6000841180156113a357506002548411155b6113e2576040517f08c379a00000000000000000000000000000000000000000000000000000000081526004016113d9906155aa565b60405180910390fd5b600287511015611427576040517f08c379a000000000000000000000000000000000000000000000000000000000815260040161141e90615616565b60405180910390fd5b6000811161146a576040517f08c379a000000000000000000000000000000000000000000000000000000000815260040161146190615682565b60405180910390fd5b4283106114ac576040517f08c379a00000000000000000000000000000000000000000000000000000000081526004016114a3906156ee565b60405180910390fd5b8282116114ee576040517f08c379a00000000000000000000000000000000000000000000000000000000081526004016114e590615780565b60405180910390fd5b600160008154809291906115019061521a565b91905055506040518061012001604052803373ffffffffffffffffffffffffffffffffffffffff1681526020018881526020018581526020016000600681111561154e5761154d614258565b5b81526020018781526020018681526020018481526020018381526020018281525060066000600154815260200190815260200160002060008201518160000160006101000a81548173ffffffffffffffffffffffffffffffffffffffff021916908373ffffffffffffffffffffffffffffffffffffffff16021790555060208201518160010190816115e09190615119565b506040820151816002015560608201518160030160006101000a81548160ff0219169083600681111561161657611615614258565b5b021790555060808201518160040190816116309190615119565b5060a08201518160050190816116469190615119565b5060c0820151816006015560e082015181600701556101008201518160080155905050600960008581526020019081526020016000206001549080600181540180825580915050600190039060005260206000200160009091909190915055600160076000600154815260200190815260200160002060008282546116cb91906157a0565b92505081905550600a60003373ffffffffffffffffffffffffffffffffffffffff1673ffffffffffffffffffffffffffffffffffffffff16815260200190815260200160002060015490806001815401808255809150506001900390600052602060002001600090919091909150556001600b60003373ffffffffffffffffffffffffffffffffffffffff1673ffffffffffffffffffffffffffffffffffffffff1681526020019081526020016000206000600154815260200190815260200160002060006101000a81548160ff0219169083151502179055506040518060c001604052803373ffffffffffffffffffffffffffffffffffffffff168152602001428152602001600081526020016007600060015481526020019081526020016000205481526020016000600681111561180857611807614258565b5b81526020016040518060400160405280600d81526020017f4d616e7566616374757265642e00000000000000000000000000000000000000815250815250600860006001548152602001908152602001600020600060076000600154815260200190815260200160002054815260200190815260200160002060008201518160000160006101000a81548173ffffffffffffffffffffffffffffffffffffffff021916908373ffffffffffffffffffffffffffffffffffffffff16021790555060208201518160010155604082015181600201556060820151816003015560808201518160040160006101000a81548160ff0219169083600681111561191157611910614258565b5b021790555060a082015181600501908161192b9190615119565b509050506001547fcca07c742c5274e8b72111ba69566aa4442450bfc50bd897ea38d0170d1accfc88866040516119639291906157e3565b60405180910390a250505050505050565b8260008111801561198757506001548111155b6119c6576040517f08c379a00000000000000000000000000000000000000000000000000000000081526004016119bd9061585f565b60405180910390fd5b600c60003373ffffffffffffffffffffffffffffffffffffffff1673ffffffffffffffffffffffffffffffffffffffff16815260200190815260200160002060009054906101000a900460ff16611a52576040517f08c379a0000000000000000000000000000000000000000000000000000000008152600401611a49906152ec565b60405180910390fd5b60026004811115611a6657611a65614258565b5b600460003373ffffffffffffffffffffffffffffffffffffffff1673ffffffffffffffffffffffffffffffffffffffff16815260200190815260200160002060020160019054906101000a900460ff166004811115611ac857611ac7614258565b5b14611b08576040517f08c379a0000000000000000000000000000000000000000000000000000000008152600401611aff90615358565b60405180910390fd5b3373ffffffffffffffffffffffffffffffffffffffff166006600086815260200190815260200160002060000160009054906101000a900473ffffffffffffffffffffffffffffffffffffffff1673ffffffffffffffffffffffffffffffffffffffff1614611bac576040517f08c379a0000000000000000000000000000000000000000000000000000000008152600401611ba390615430565b60405180910390fd5b6006600085815260200190815260200160002060030160009054906101000a900460ff166006811115611be257611be1614258565b5b836006811115611bf557611bf4614258565b5b03611c35576040517f08c379a0000000000000000000000000000000000000000000000000000000008152600401611c2c906158cb565b60405180910390fd5b600680811115611c4857611c47614258565b5b836006811115611c5b57611c5a614258565b5b1480611c8b575060056006811115611c7657611c75614258565b5b836006811115611c8957611c88614258565b5b145b611cca576040517f08c379a0000000000000000000000000000000000000000000000000000000008152600401611cc190615937565b60405180910390fd5b600582511015611d0f576040517f08c379a0000000000000000000000000000000000000000000000000000000008152600401611d06906159a3565b60405180910390fd5b826006600086815260200190815260200160002060030160006101000a81548160ff02191690836006811115611d4857611d47614258565b5b021790555060006006600086815260200190815260200160002060000160006101000a81548173ffffffffffffffffffffffffffffffffffffffff021916908373ffffffffffffffffffffffffffffffffffffffff160217905550600760008581526020019081526020016000206000815480929190611dc79061521a565b91905055506040518060c001604052803373ffffffffffffffffffffffffffffffffffffffff1681526020014281526020016000815260200160076000878152602001908152602001600020548152602001846006811115611e2c57611e2b614258565b5b8152602001838152506008600086815260200190815260200160002060006007600088815260200190815260200160002054815260200190815260200160002060008201518160000160006101000a81548173ffffffffffffffffffffffffffffffffffffffff021916908373ffffffffffffffffffffffffffffffffffffffff16021790555060208201518160010155604082015181600201556060820151816003015560808201518160040160006101000a81548160ff02191690836006811115611efc57611efb614258565b5b021790555060a0820151816005019081611f169190615119565b509050504260086000868152602001908152602001600020600060016007600089815260200190815260200160002054611f5091906154bc565b815260200190815260200160002060020181905550837f81d42ac9e3d46884f2be5e2b66b43e389b2a0f31342d07a3f71d2090017851698484604051611f979291906154ff565b60405180910390a250505050565b606060008054906101000a900473ffffffffffffffffffffffffffffffffffffffff1673ffffffffffffffffffffffffffffffffffffffff163373ffffffffffffffffffffffffffffffffffffffff1614612035576040517f08c379a000000000000000000000000000000000000000000000000000000000815260040161202c90615a35565b60405180910390fd5b600060035467ffffffffffffffff81111561205357612052613eb8565b5b60405190808252806020026020018201604052801561208c57816020015b612079613cf8565b8152602001906001900390816120715790505b50905060005b6003548110156122ea576000600d82815481106120b2576120b161552f565b5b9060005260206000200160009054906101000a900473ffffffffffffffffffffffffffffffffffffffff1690506000600460008373ffffffffffffffffffffffffffffffffffffffff1673ffffffffffffffffffffffffffffffffffffffff16815260200190815260200160002090506040518060a001604052808373ffffffffffffffffffffffffffffffffffffffff16815260200182600001805461215890614f3c565b80601f016020809104026020016040519081016040528092919081815260200182805461218490614f3c565b80156121d15780601f106121a6576101008083540402835291602001916121d1565b820191906000526020600020905b8154815290600101906020018083116121b457829003601f168201915b505050505081526020018260010180546121ea90614f3c565b80601f016020809104026020016040519081016040528092919081815260200182805461221690614f3c565b80156122635780601f1061223857610100808354040283529160200191612263565b820191906000526020600020905b81548152906001019060200180831161224657829003601f168201915b505050505081526020018260020160009054906101000a900460ff16600481111561229157612290614258565b5b81526020018260020160019054906101000a900460ff1660048111156122ba576122b9614258565b5b8152508484815181106122d0576122cf61552f565b5b602002602001018190525050508080600101915050612092565b508091505090565b6122fa613d61565b612302613dd5565b606060006007600086815260200190815260200160002054905060008167ffffffffffffffff81111561233857612337613eb8565b5b60405190808252806020026020018201604052801561237157816020015b61235e613def565b8152602001906001900390816123565790505b5090506000600190505b828111612759576040518060c0016040528060046000600860008c8152602001908152602001600020600086815260200190815260200160002060000160009054906101000a900473ffffffffffffffffffffffffffffffffffffffff1673ffffffffffffffffffffffffffffffffffffffff1673ffffffffffffffffffffffffffffffffffffffff16815260200190815260200160002060405180608001604052908160008201805461242e90614f3c565b80601f016020809104026020016040519081016040528092919081815260200182805461245a90614f3c565b80156124a75780601f1061247c576101008083540402835291602001916124a7565b820191906000526020600020905b81548152906001019060200180831161248a57829003601f168201915b505050505081526020016001820180546124c090614f3c565b80601f01602080910402602001604051908101604052809291908181526020018280546124ec90614f3c565b80156125395780601f1061250e57610100808354040283529160200191612539565b820191906000526020600020905b81548152906001019060200180831161251c57829003601f168201915b505050505081526020016002820160009054906101000a900460ff16600481111561256757612566614258565b5b600481111561257957612578614258565b5b81526020016002820160019054906101000a900460ff1660048111156125a2576125a1614258565b5b60048111156125b4576125b3614258565b5b815250508152602001600860008a8152602001908152602001600020600084815260200190815260200160002060040160009054906101000a900460ff16600681111561260457612603614258565b5b8152602001828152602001600860008a81526020019081526020016000206000848152602001908152602001600020600101548152602001600860008a81526020019081526020016000206000848152602001908152602001600020600201548152602001600860008a81526020019081526020016000206000848152602001908152602001600020600501805461269b90614f3c565b80601f01602080910402602001604051908101604052809291908181526020018280546126c790614f3c565b80156127145780601f106126e957610100808354040283529160200191612714565b820191906000526020600020905b8154815290600101906020018083116126f757829003601f168201915b50505050508152508260018361272a91906154bc565b8151811061273b5761273a61552f565b5b602002602001018190525080806127519061521a565b91505061237b565b506006600087815260200190815260200160002060056000600660008a81526020019081526020016000206002015481526020019081526020016000208282604051806101200160405290816000820160009054906101000a900473ffffffffffffffffffffffffffffffffffffffff1673ffffffffffffffffffffffffffffffffffffffff1673ffffffffffffffffffffffffffffffffffffffff16815260200160018201805461280a90614f3c565b80601f016020809104026020016040519081016040528092919081815260200182805461283690614f3c565b80156128835780601f1061285857610100808354040283529160200191612883565b820191906000526020600020905b81548152906001019060200180831161286657829003601f168201915b50505050508152602001600282015481526020016003820160009054906101000a900460ff1660068111156128bb576128ba614258565b5b60068111156128cd576128cc614258565b5b81526020016004820180546128e190614f3c565b80601f016020809104026020016040519081016040528092919081815260200182805461290d90614f3c565b801561295a5780601f1061292f5761010080835404028352916020019161295a565b820191906000526020600020905b81548152906001019060200180831161293d57829003601f168201915b5050505050815260200160058201805461297390614f3c565b80601f016020809104026020016040519081016040528092919081815260200182805461299f90614f3c565b80156129ec5780601f106129c1576101008083540402835291602001916129ec565b820191906000526020600020905b8154815290600101906020018083116129cf57829003601f168201915b505050505081526020016006820154815260200160078201548152602001600882015481525050925081604051806040016040529081600082018054612a3190614f3c565b80601f0160208091040260200160405190810160405280929190818152602001828054612a5d90614f3c565b8015612aaa5780601f10612a7f57610100808354040283529160200191612aaa565b820191906000526020600020905b815481529060010190602001808311612a8d57829003601f168201915b50505050508152602001600182018054612ac390614f3c565b80601f0160208091040260200160405190810160405280929190818152602001828054612aef90614f3c565b8015612b3c5780601f10612b1157610100808354040283529160200191612b3c565b820191906000526020600020905b815481529060010190602001808311612b1f57829003601f168201915b505050505081525050915094509450945050509193909250565b60008054906101000a900473ffffffffffffffffffffffffffffffffffffffff1681565b600c60003373ffffffffffffffffffffffffffffffffffffffff1673ffffffffffffffffffffffffffffffffffffffff16815260200190815260200160002060009054906101000a900460ff16612c06576040517f08c379a0000000000000000000000000000000000000000000000000000000008152600401612bfd906152ec565b60405180910390fd5b60026004811115612c1a57612c19614258565b5b600460003373ffffffffffffffffffffffffffffffffffffffff1673ffffffffffffffffffffffffffffffffffffffff16815260200190815260200160002060020160019054906101000a900460ff166004811115612c7c57612c7b614258565b5b14612cbc576040517f08c379a0000000000000000000000000000000000000000000000000000000008152600401612cb390615358565b60405180910390fd5b60006004811115612cd057612ccf614258565b5b600460003373ffffffffffffffffffffffffffffffffffffffff1673ffffffffffffffffffffffffffffffffffffffff16815260200190815260200160002060020160009054906101000a900460ff166004811115612d3257612d31614258565b5b14612d72576040517f08c379a0000000000000000000000000000000000000000000000000000000008152600401612d6990615430565b60405180910390fd5b600282511015612db7576040517f08c379a0000000000000000000000000000000000000000000000000000000008152600401612dae90615aa1565b60405180910390fd5b60026000815480929190612dca9061521a565b91905055506040518060400160405280838152602001828152506005600060025481526020019081526020016000206000820151816000019081612e0e9190615119565b506020820151816001019081612e249190615119565b509050506002547f65d0897ef90523e0e840598aac93f29c40c60164ddb22532dfd3a7951575737683604051612e5a9190615ac1565b60405180910390a25050565b60008054906101000a900473ffffffffffffffffffffffffffffffffffffffff1673ffffffffffffffffffffffffffffffffffffffff163373ffffffffffffffffffffffffffffffffffffffff1614612ef4576040517f08c379a0000000000000000000000000000000000000000000000000000000008152600401612eeb90615a35565b60405180910390fd5b600073ffffffffffffffffffffffffffffffffffffffff168273ffffffffffffffffffffffffffffffffffffffff1603612f63576040517f08c379a0000000000000000000000000000000000000000000000000000000008152600401612f5a90615b2f565b60405180910390fd5b6000600460008473ffffffffffffffffffffffffffffffffffffffff1673ffffffffffffffffffffffffffffffffffffffff16815260200190815260200160002060020160019054906101000a900460ff169050816004811115612fca57612fc9614258565b5b816004811115612fdd57612fdc614258565b5b0361301d576040517f08c379a000000000000000000000000000000000000000000000000000000000815260040161301490615b9b565b60405180910390fd5b6004808111156130305761302f614258565b5b82600481111561304357613042614258565b5b036130b4576002600481111561305c5761305b614258565b5b81600481111561306f5761306e614258565b5b146130af576040517f08c379a00000000000000000000000000000000000000000000000000000000081526004016130a690615c07565b60405180910390fd5b613268565b600160048111156130c8576130c7614258565b5b8260048111156130db576130da614258565b5b036131a457600060048111156130f4576130f3614258565b5b81600481111561310757613106614258565b5b14613147576040517f08c379a000000000000000000000000000000000000000000000000000000000815260040161313e90615c73565b60405180910390fd5b6000600c60008573ffffffffffffffffffffffffffffffffffffffff1673ffffffffffffffffffffffffffffffffffffffff16815260200190815260200160002060006101000a81548160ff021916908315150217905550613267565b600260048111156131b8576131b7614258565b5b8260048111156131cb576131ca614258565b5b0361326657600060048111156131e4576131e3614258565b5b8160048111156131f7576131f6614258565b5b1480613226575060048081111561321157613210614258565b5b81600481111561322457613223614258565b5b145b613265576040517f08c379a000000000000000000000000000000000000000000000000000000000815260040161325c90615d05565b60405180910390fd5b5b5b5b81600460008573ffffffffffffffffffffffffffffffffffffffff1673ffffffffffffffffffffffffffffffffffffffff16815260200190815260200160002060020160016101000a81548160ff021916908360048111156132cd576132cc614258565b5b02179055508273ffffffffffffffffffffffffffffffffffffffff167f975ac4961d0adbdc3da20d9f9993760d66928d93dfa2dee4bb79815b266530e2828460405161331a929190615d25565b60405180910390a2505050565b600460205280600052604060002060009150905080600001805461334a90614f3c565b80601f016020809104026020016040519081016040528092919081815260200182805461337690614f3c565b80156133c35780601f10613398576101008083540402835291602001916133c3565b820191906000526020600020905b8154815290600101906020018083116133a657829003601f168201915b5050505050908060010180546133d890614f3c565b80601f016020809104026020016040519081016040528092919081815260200182805461340490614f3c565b80156134515780601f1061342657610100808354040283529160200191613451565b820191906000526020600020905b81548152906001019060200180831161343457829003601f168201915b5050505050908060020160009054906101000a900460ff16908060020160019054906101000a900460ff16905084565b60008054906101000a900473ffffffffffffffffffffffffffffffffffffffff1673ffffffffffffffffffffffffffffffffffffffff163373ffffffffffffffffffffffffffffffffffffffff161461350f576040517f08c379a000000000000000000000000000000000000000000000000000000000815260040161350690615a35565b60405180910390fd5b600073ffffffffffffffffffffffffffffffffffffffff168473ffffffffffffffffffffffffffffffffffffffff160361357e576040517f08c379a000000000000000000000000000000000000000000000000000000000815260040161357590615b2f565b60405180910390fd5b600283511015801561359257506002825110155b6135d1576040517f08c379a00000000000000000000000000000000000000000000000000000000081526004016135c890614e15565b60405180910390fd5b600c60008573ffffffffffffffffffffffffffffffffffffffff1673ffffffffffffffffffffffffffffffffffffffff16815260200190815260200160002060009054906101000a900460ff161561365e576040517f08c379a000000000000000000000000000000000000000000000000000000000815260040161365590614e81565b60405180910390fd5b60008054906101000a900473ffffffffffffffffffffffffffffffffffffffff1673ffffffffffffffffffffffffffffffffffffffff168473ffffffffffffffffffffffffffffffffffffffff16036136ec576040517f08c379a00000000000000000000000000000000000000000000000000000000081526004016136e390614eed565b60405180910390fd5b604051806080016040528084815260200183815260200182600481111561371657613715614258565b5b81526020016002600481111561372f5761372e614258565b5b815250600460008673ffffffffffffffffffffffffffffffffffffffff1673ffffffffffffffffffffffffffffffffffffffff16815260200190815260200160002060008201518160000190816137869190615119565b50602082015181600101908161379c9190615119565b5060408201518160020160006101000a81548160ff021916908360048111156137c8576137c7614258565b5b021790555060608201518160020160016101000a81548160ff021916908360048111156137f8576137f7614258565b5b02179055509050506001600c60008673ffffffffffffffffffffffffffffffffffffffff1673ffffffffffffffffffffffffffffffffffffffff16815260200190815260200160002060006101000a81548160ff021916908315150217905550600d849080600181540180825580915050600190039060005260206000200160009091909190916101000a81548173ffffffffffffffffffffffffffffffffffffffff021916908373ffffffffffffffffffffffffffffffffffffffff160217905550600360008154809291906138ce9061521a565b91905055508373ffffffffffffffffffffffffffffffffffffffff167fc2d513e5848a176ed9c47c262b65bc07cbf0ea47de289a3cef6197427ca56f428483600260405161391e93929190615262565b60405180910390a250505050565b600c6020528060005260406000206000915054906101000a900460ff1681565b600560205280600052604060002060009150905080600001805461396f90614f3c565b80601f016020809104026020016040519081016040528092919081815260200182805461399b90614f3c565b80156139e85780601f106139bd576101008083540402835291602001916139e8565b820191906000526020600020905b8154815290600101906020018083116139cb57829003601f168201915b5050505050908060010180546139fd90614f3c565b80601f0160208091040260200160405190810160405280929190818152602001828054613a2990614f3c565b8015613a765780601f10613a4b57610100808354040283529160200191613a76565b820191906000526020600020905b815481529060010190602001808311613a5957829003601f168201915b5050505050905082565b600080600460008573ffffffffffffffffffffffffffffffffffffffff1673ffffffffffffffffffffffffffffffffffffffff16815260200190815260200160002060020160009054906101000a900460ff16905060006006811115613ae957613ae8614258565b5b836006811115613afc57613afb614258565b5b148015613b2d575060006004811115613b1857613b17614258565b5b816004811115613b2b57613b2a614258565b5b145b15613b3c576001915050613c77565b60016006811115613b5057613b4f614258565b5b836006811115613b6357613b62614258565b5b148015613b94575060016004811115613b7f57613b7e614258565b5b816004811115613b9257613b91614258565b5b145b15613ba3576001915050613c77565b60026006811115613bb757613bb6614258565b5b836006811115613bca57613bc9614258565b5b148015613bfb575060026004811115613be657613be5614258565b5b816004811115613bf957613bf8614258565b5b145b15613c0a576001915050613c77565b60036006811115613c1e57613c1d614258565b5b836006811115613c3157613c30614258565b5b148015613c62575060036004811115613c4d57613c4c614258565b5b816004811115613c6057613c5f614258565b5b145b15613c71576001915050613c77565b60009150505b92915050565b60405180610140016040528060008152602001600073ffffffffffffffffffffffffffffffffffffffff168152602001606081526020016000815260200160006006811115613ccf57613cce614258565b5b815260200160608152602001606081526020016000815260200160008152602001600081525090565b6040518060a00160405280600073ffffffffffffffffffffffffffffffffffffffff168152602001606081526020016060815260200160006004811115613d4257613d41614258565b5b815260200160006004811115613d5b57613d5a614258565b5b81525090565b604051806101200160405280600073ffffffffffffffffffffffffffffffffffffffff168152602001606081526020016000815260200160006006811115613dac57613dab614258565b5b815260200160608152602001606081526020016000815260200160008152602001600081525090565b604051806040016040528060608152602001606081525090565b6040518060c00160405280613e02613e3d565b815260200160006006811115613e1b57613e1a614258565b5b8152602001600081526020016000815260200160008152602001606081525090565b6040518060800160405280606081526020016060815260200160006004811115613e6a57613e69614258565b5b815260200160006004811115613e8357613e82614258565b5b81525090565b6000604051905090565b600080fd5b600080fd5b600080fd5b600080fd5b6000601f19601f8301169050919050565b7f4e487b7100000000000000000000000000000000000000000000000000000000600052604160045260246000fd5b613ef082613ea7565b810181811067ffffffffffffffff82111715613f0f57613f0e613eb8565b5b80604052505050565b6000613f22613e89565b9050613f2e8282613ee7565b919050565b600067ffffffffffffffff821115613f4e57613f4d613eb8565b5b613f5782613ea7565b9050602081019050919050565b82818337600083830152505050565b6000613f86613f8184613f33565b613f18565b905082815260208101848484011115613fa257613fa1613ea2565b5b613fad848285613f64565b509392505050565b600082601f830112613fca57613fc9613e9d565b5b8135613fda848260208601613f73565b91505092915050565b60058110613ff057600080fd5b50565b60008135905061400281613fe3565b92915050565b60008060006060848603121561402157614020613e93565b5b600084013567ffffffffffffffff81111561403f5761403e613e98565b5b61404b86828701613fb5565b935050602084013567ffffffffffffffff81111561406c5761406b613e98565b5b61407886828701613fb5565b925050604061408986828701613ff3565b9150509250925092565b6000819050919050565b6140a681614093565b81146140b157600080fd5b50565b6000813590506140c38161409d565b92915050565b600781106140d657600080fd5b50565b6000813590506140e8816140c9565b92915050565b60008060006060848603121561410757614106613e93565b5b6000614115868287016140b4565b9350506020614126868287016140d9565b925050604084013567ffffffffffffffff81111561414757614146613e98565b5b61415386828701613fb5565b9150509250925092565b600081519050919050565b600082825260208201905092915050565b6000819050602082019050919050565b61419281614093565b82525050565b600073ffffffffffffffffffffffffffffffffffffffff82169050919050565b60006141c382614198565b9050919050565b6141d3816141b8565b82525050565b600081519050919050565b600082825260208201905092915050565b60005b838110156142135780820151818401526020810190506141f8565b60008484015250505050565b600061422a826141d9565b61423481856141e4565b93506142448185602086016141f5565b61424d81613ea7565b840191505092915050565b7f4e487b7100000000000000000000000000000000000000000000000000000000600052602160045260246000fd5b6007811061429857614297614258565b5b50565b60008190506142a982614287565b919050565b60006142b98261429b565b9050919050565b6142c9816142ae565b82525050565b6000610140830160008301516142e86000860182614189565b5060208301516142fb60208601826141ca565b5060408301518482036040860152614313828261421f565b91505060608301516143286060860182614189565b50608083015161433b60808601826142c0565b5060a083015184820360a0860152614353828261421f565b91505060c083015184820360c086015261436d828261421f565b91505060e083015161438260e0860182614189565b50610100830151614397610100860182614189565b506101208301516143ac610120860182614189565b508091505092915050565b60006143c383836142cf565b905092915050565b6000602082019050919050565b60006143e38261415d565b6143ed8185614168565b9350836020820285016143ff85614179565b8060005b8581101561443b578484038952815161441c85826143b7565b9450614427836143cb565b925060208a01995050600181019050614403565b50829750879550505050505092915050565b6000602082019050818103600083015261446781846143d8565b905092915050565b600080600080600080600060e0888a03121561448e5761448d613e93565b5b600088013567ffffffffffffffff8111156144ac576144ab613e98565b5b6144b88a828b01613fb5565b975050602088013567ffffffffffffffff8111156144d9576144d8613e98565b5b6144e58a828b01613fb5565b965050604088013567ffffffffffffffff81111561450657614505613e98565b5b6145128a828b01613fb5565b95505060606145238a828b016140b4565b94505060806145348a828b016140b4565b93505060a06145458a828b016140b4565b92505060c06145568a828b016140b4565b91505092959891949750929550565b600081519050919050565b600082825260208201905092915050565b6000819050602082019050919050565b600581106145a2576145a1614258565b5b50565b60008190506145b382614591565b919050565b60006145c3826145a5565b9050919050565b6145d3816145b8565b82525050565b600581106145ea576145e9614258565b5b50565b60008190506145fb826145d9565b919050565b600061460b826145ed565b9050919050565b61461b81614600565b82525050565b600060a08301600083015161463960008601826141ca565b5060208301518482036020860152614651828261421f565b9150506040830151848203604086015261466b828261421f565b915050606083015161468060608601826145ca565b5060808301516146936080860182614612565b508091505092915050565b60006146aa8383614621565b905092915050565b6000602082019050919050565b60006146ca82614565565b6146d48185614570565b9350836020820285016146e685614581565b8060005b858110156147225784840389528151614703858261469e565b945061470e836146b2565b925060208a019950506001810190506146ea565b50829750879550505050505092915050565b6000602082019050818103600083015261474e81846146bf565b905092915050565b60006020828403121561476c5761476b613e93565b5b600061477a848285016140b4565b91505092915050565b60006101208301600083015161479c60008601826141ca565b50602083015184820360208601526147b4828261421f565b91505060408301516147c96040860182614189565b5060608301516147dc60608601826142c0565b50608083015184820360808601526147f4828261421f565b91505060a083015184820360a086015261480e828261421f565b91505060c083015161482360c0860182614189565b5060e083015161483660e0860182614189565b5061010083015161484b610100860182614189565b508091505092915050565b60006040830160008301518482036000860152614873828261421f565b9150506020830151848203602086015261488d828261421f565b9150508091505092915050565b600081519050919050565b600082825260208201905092915050565b6000819050602082019050919050565b600060808301600083015184820360008601526148e3828261421f565b915050602083015184820360208601526148fd828261421f565b915050604083015161491260408601826145ca565b5060608301516149256060860182614612565b508091505092915050565b600060c083016000830151848203600086015261494d82826148c6565b915050602083015161496260208601826142c0565b5060408301516149756040860182614189565b5060608301516149886060860182614189565b50608083015161499b6080860182614189565b5060a083015184820360a08601526149b3828261421f565b9150508091505092915050565b60006149cc8383614930565b905092915050565b6000602082019050919050565b60006149ec8261489a565b6149f681856148a5565b935083602082028501614a08856148b6565b8060005b85811015614a445784840389528151614a2585826149c0565b9450614a30836149d4565b925060208a01995050600181019050614a0c565b50829750879550505050505092915050565b60006060820190508181036000830152614a708186614783565b90508181036020830152614a848185614856565b90508181036040830152614a9881846149e1565b9050949350505050565b614aab816141b8565b82525050565b6000602082019050614ac66000830184614aa2565b92915050565b60008060408385031215614ae357614ae2613e93565b5b600083013567ffffffffffffffff811115614b0157614b00613e98565b5b614b0d85828601613fb5565b925050602083013567ffffffffffffffff811115614b2e57614b2d613e98565b5b614b3a85828601613fb5565b9150509250929050565b614b4d816141b8565b8114614b5857600080fd5b50565b600081359050614b6a81614b44565b92915050565b60058110614b7d57600080fd5b50565b600081359050614b8f81614b70565b92915050565b60008060408385031215614bac57614bab613e93565b5b6000614bba85828601614b5b565b9250506020614bcb85828601614b80565b9150509250929050565b600060208284031215614beb57614bea613e93565b5b6000614bf984828501614b5b565b91505092915050565b600082825260208201905092915050565b6000614c1e826141d9565b614c288185614c02565b9350614c388185602086016141f5565b614c4181613ea7565b840191505092915050565b614c55816145b8565b82525050565b614c6481614600565b82525050565b60006080820190508181036000830152614c848187614c13565b90508181036020830152614c988186614c13565b9050614ca76040830185614c4c565b614cb46060830184614c5b565b95945050505050565b60008060008060808587031215614cd757614cd6613e93565b5b6000614ce587828801614b5b565b945050602085013567ffffffffffffffff811115614d0657614d05613e98565b5b614d1287828801613fb5565b935050604085013567ffffffffffffffff811115614d3357614d32613e98565b5b614d3f87828801613fb5565b9250506060614d5087828801613ff3565b91505092959194509250565b60008115159050919050565b614d7181614d5c565b82525050565b6000602082019050614d8c6000830184614d68565b92915050565b60006040820190508181036000830152614dac8185614c13565b90508181036020830152614dc08184614c13565b90509392505050565b7f4e616d652f506c61636520746f6f2073686f72742e0000000000000000000000600082015250565b6000614dff601583614c02565b9150614e0a82614dc9565b602082019050919050565b60006020820190508181036000830152614e2e81614df2565b9050919050565b7f5573657220616c7265616479206578697374732e000000000000000000000000600082015250565b6000614e6b601483614c02565b9150614e7682614e35565b602082019050919050565b60006020820190508181036000830152614e9a81614e5e565b9050919050565b7f4f776e657220646973616c6c6f77656400000000000000000000000000000000600082015250565b6000614ed7601083614c02565b9150614ee282614ea1565b602082019050919050565b60006020820190508181036000830152614f0681614eca565b9050919050565b7f4e487b7100000000000000000000000000000000000000000000000000000000600052602260045260246000fd5b60006002820490506001821680614f5457607f821691505b602082108103614f6757614f66614f0d565b5b50919050565b60008190508160005260206000209050919050565b60006020601f8301049050919050565b600082821b905092915050565b600060088302614fcf7fffffffffffffffffffffffffffffffffffffffffffffffffffffffffffffffff82614f92565b614fd98683614f92565b95508019841693508086168417925050509392505050565b6000819050919050565b600061501661501161500c84614093565b614ff1565b614093565b9050919050565b6000819050919050565b61503083614ffb565b61504461503c8261501d565b848454614f9f565b825550505050565b600090565b61505961504c565b615064818484615027565b505050565b5b818110156150885761507d600082615051565b60018101905061506a565b5050565b601f8211156150cd5761509e81614f6d565b6150a784614f82565b810160208510156150b6578190505b6150ca6150c285614f82565b830182615069565b50505b505050565b600082821c905092915050565b60006150f0600019846008026150d2565b1980831691505092915050565b600061510983836150df565b9150826002028217905092915050565b615122826141d9565b67ffffffffffffffff81111561513b5761513a613eb8565b5b6151458254614f3c565b61515082828561508c565b600060209050601f8311600181146151835760008415615171578287015190505b61517b85826150fd565b8655506151e3565b601f19841661519186614f6d565b60005b828110156151b957848901518255600182019150602085019450602081019050615194565b868310156151d657848901516151d2601f8916826150df565b8355505b6001600288020188555050505b505050505050565b7f4e487b7100000000000000000000000000000000000000000000000000000000600052601160045260246000fd5b600061522582614093565b91507fffffffffffffffffffffffffffffffffffffffffffffffffffffffffffffffff8203615257576152566151eb565b5b600182019050919050565b6000606082019050818103600083015261527c8186614c13565b905061528b6020830185614c4c565b6152986040830184614c5b565b949350505050565b7f5573657220646f65736e6f742065786973742e00000000000000000000000000600082015250565b60006152d6601383614c02565b91506152e1826152a0565b602082019050919050565b60006020820190508181036000830152615305816152c9565b9050919050565b7f55736572206973206e6f74206f6e204163746976652053746174652e00000000600082015250565b6000615342601c83614c02565b915061534d8261530c565b602082019050919050565b6000602082019050818103600083015261537181615335565b9050919050565b7f496e76616c6964207374616765207472616e736974696f6e2e00000000000000600082015250565b60006153ae601983614c02565b91506153b982615378565b602082019050919050565b600060208201905081810360008301526153dd816153a1565b9050919050565b7f556e617574686f72697a65642e00000000000000000000000000000000000000600082015250565b600061541a600d83614c02565b9150615425826153e4565b602082019050919050565b600060208201905081810360008301526154498161540d565b9050919050565b7f596f75206861766520616c726561647920636865636b2d696e2e000000000000600082015250565b6000615486601a83614c02565b915061549182615450565b602082019050919050565b600060208201905081810360008301526154b581615479565b9050919050565b60006154c782614093565b91506154d283614093565b92508282039050818111156154ea576154e96151eb565b5b92915050565b6154f9816142ae565b82525050565b600060408201905061551460008301856154f0565b81810360208301526155268184614c13565b90509392505050565b7f4e487b7100000000000000000000000000000000000000000000000000000000600052603260045260246000fd5b7f496e76616c696420626174636800000000000000000000000000000000000000600082015250565b6000615594600d83614c02565b915061559f8261555e565b602082019050919050565b600060208201905081810360008301526155c381615587565b9050919050565b7f4e616d6520546f6f2073686f7274000000000000000000000000000000000000600082015250565b6000615600600e83614c02565b915061560b826155ca565b602082019050919050565b6000602082019050818103600083015261562f816155f3565b9050919050565b7f496e76616c696420707269636500000000000000000000000000000000000000600082015250565b600061566c600d83614c02565b915061567782615636565b602082019050919050565b6000602082019050818103600083015261569b8161565f565b9050919050565b7f4d616e75666163747572652064617465206d75737420626520706173742e0000600082015250565b60006156d8601e83614c02565b91506156e3826156a2565b602082019050919050565b60006020820190508181036000830152615707816156cb565b9050919050565b7f4578706972792064617465206d757374206265206166746572206d616e75666160008201527f637475726520646174652e000000000000000000000000000000000000000000602082015250565b600061576a602b83614c02565b91506157758261570e565b604082019050919050565b600060208201905081810360008301526157998161575d565b9050919050565b60006157ab82614093565b91506157b683614093565b92508282019050808211156157ce576157cd6151eb565b5b92915050565b6157dd81614093565b82525050565b600060408201905081810360008301526157fd8185614c13565b905061580c60208301846157d4565b9392505050565b7f496e76616c69642050726f647563742049642e00000000000000000000000000600082015250565b6000615849601383614c02565b915061585482615813565b602082019050919050565b600060208201905081810360008301526158788161583c565b9050919050565b7f416c7265616479206f6e20646573697265642073746167652e00000000000000600082015250565b60006158b5601983614c02565b91506158c08261587f565b602082019050919050565b600060208201905081810360008301526158e4816158a8565b9050919050565b7f496e76616c6964205374616765207472616e736974696f6e2e00000000000000600082015250565b6000615921601983614c02565b915061592c826158eb565b602082019050919050565b6000602082019050818103600083015261595081615914565b9050919050565b7f546f6f2053686f72742072656d61726b2e000000000000000000000000000000600082015250565b600061598d601183614c02565b915061599882615957565b602082019050919050565b600060208201905081810360008301526159bc81615980565b9050919050565b7f4f6e6c79206f776e65722063616e20706572666f726d2074686973206163746960008201527f6f6e2e0000000000000000000000000000000000000000000000000000000000602082015250565b6000615a1f602383614c02565b9150615a2a826159c3565b604082019050919050565b60006020820190508181036000830152615a4e81615a12565b9050919050565b7f4e616d6520546f6f2073686f72742e0000000000000000000000000000000000600082015250565b6000615a8b600f83614c02565b9150615a9682615a55565b602082019050919050565b60006020820190508181036000830152615aba81615a7e565b9050919050565b60006020820190508181036000830152615adb8184614c13565b905092915050565b7f496e76616c696420616464726573732e00000000000000000000000000000000600082015250565b6000615b19601083614c02565b9150615b2482615ae3565b602082019050919050565b60006020820190508181036000830152615b4881615b0c565b9050919050565b7f416c726561647920696e20646573697265642073746174652e00000000000000600082015250565b6000615b85601983614c02565b9150615b9082615b4f565b602082019050919050565b60006020820190508181036000830152615bb481615b78565b9050919050565b7f55736572206d757374206265204163746976652e000000000000000000000000600082015250565b6000615bf1601483614c02565b9150615bfc82615bbb565b602082019050919050565b60006020820190508181036000830152615c2081615be4565b9050919050565b7f55736572206d7573742062652050656e64696e672e0000000000000000000000600082015250565b6000615c5d601583614c02565b9150615c6882615c27565b602082019050919050565b60006020820190508181036000830152615c8c81615c50565b9050919050565b7f55736572206d7573742062652050656e64696e67206f7220446561637469766160008201527f7465642e00000000000000000000000000000000000000000000000000000000602082015250565b6000615cef602483614c02565b9150615cfa82615c93565b604082019050919050565b60006020820190508181036000830152615d1e81615ce2565b9050919050565b6000604082019050615d3a6000830185614c5b565b615d476020830184614c5b565b939250505056fea26469706673582212206a018228b407511e5f6b069484308cdc28781b22bdc2b5991e73b545aba96b3464736f6c634300081c0033",
  "linkReferences": {},
  "deployedLinkReferences": {}
}